:020000040800F2
:10000000B80900205D01000871330008733300084F
:1000100000000000000000000000000000000000E0
:10002000000000000000000000000000773300081E
:100030000000000000000000793300087B33000856
:100040008D010008000000008D0100088D010008EE
:100050008D0100088D0100088D0100087D33000826
:10006000000000008D0100088D0100088D010008CE
:100070008D0100088D0100088D01000800000000BE
:100080008D0100080000000000000000CD380008CD
:100090008D0100088D0100088F3300088D010008D4
:1000A0008D0100088D0100088D0100085B360008F5
:1000B000C137000800F002F800F040F80CA030C88A
:1000C000083824182D18A246671EAB4654465D46D4
:1000D000AC4201D100F032F87E460F3E0FCCB6465E
:1000E0000126334200D0FB1AA246AB4633431847E1
:1000F0001C5500003C550000103A02D378C878C166
:10010000FAD8520701D330C830C101D504680C6059
:10011000704700000023002400250026103A01D378
:1001200078C1FBD8520700D330C100D50B607047AF
:100130001FB5C046C0461FBD10B510BD05F0A6F9DD
:100140001146FFF7F5FF02F0F5FC05F0BEF903B428
:10015000FFF7F2FF03BC05F0C3F900000F4880F37E
:1001600008880F480168090E0E4A914205D10E48D1
:100170000E4901600E480F4901600F4880470F4843
:100180000047FEE7FEE7FEE7FEE7FEE7FEE70000CA
:100190000B480C490C4A0D4B70470000B809002071
:1001A000040000001F0000001810024001000000C1
:1001B00000000140000000009B020008B50000089C
:1001C000B8030020B8090020B8050020B8050020B9
:1001D0000CB50020019000907248006801210904CC
:1001E00008437049086000BF6E4800680121490457
:1001F000084000900198401C01900098002804D10C
:100200000521090301988842EED166480068012162
:100210004904084202D00120009001E00020009033
:100220000098012838D111205F4908605D48406876
:100230005C494860084640684860084640687F213D
:10024000C90388435749486008464068112109049A
:1002500008435449486008460068012109060843DC
:100260005049086000BF4F48006801214906084214
:10027000F9D04C484068800880004A4948600846E8
:100280004068022108434749486000BF454840682C
:100290000C2108400828F9D10CBD10B54148006870
:1002A000012108433F490860084640683F4908402B
:1002B0003C494860084600683D49084039490860A3
:1002C00008460068012189048843364908600846C9
:1002D00040683F2109048843324948600846C06AA3
:1002E00000090001C8620846006BFF2154318843B1
:1002F0002C4908630846406B4008400048630020D2
:100300008860FFF765FF10BDF8B5002500240026C2
:100310000027244840680C2108400546002D04D0E1
:10032000042D06D0082D2AD107E022482249086072
:1003300029E020482049086025E01A4840680F213C
:10034000890408400446174840680321C90308404F
:100350000646A00C841C002E04D1184860431649A0
:1003600008600BE00F48C06A0007000F471C3946C1
:10037000104804F0DBFF60430F49086003E00D48BC
:100380000D49086000BF00BF06484068F0210840E2
:1003900000090B490D5C08480068E8400649086000
:1003A000F8BD000000100240002002400CB8FFF829
:1003B000FFFFF6FE00127A000000002000093D0059
:1003C0000400002039483A490860002048608860ED
:1003D000C860384848617047002135498279002A51
:1003E00035D00A46126803689A430B461A600A46DB
:1003F000526803689A430B465A60027951180A689A
:1004000003681A430A602A4A926803689A43284B91
:100410009A601A46D26803689A43254BDA6042799B
:10042000102A0CD11A46926803681A43204B9A602E
:100430001A46D26803681A431D4BDA600DE01C4966
:10044000427951180A6803681A430A6005E0027984
:1004500051180A6803689A430A60704700210160D6
:1004600001710C21417100218171704710490969A6
:1004700001430F4A11617047014600200C4A52693E
:100480000A4201D0012000E000207047084948617D
:10049000704701460020064A52690A4201D00120F5
:1004A00000E0002070470249486170470000940F47
:1004B00000040140FFFF6B0001460020FB4A10686A
:1004C0004008400002460A431046F84A1060704750
:1004D000002806D0F549096810221143F34A11603B
:1004E00005E0F249096810229143F04A1160704713
:1004F0000020EE4909682022114201D0012000E0CD
:1005000000207047E94800698021084204D0E8488B
:10051000E6494860E74848607047E4480069802140
:100520000843E249086170470420E049C968C907E7
:10053000C90F01D001200EE0DC49C9681022114228
:1005400001D0022007E0D949C9680422114201D034
:10055000032000E00420704710B503460424FFF791
:10056000E3FF044603E0FFF7DFFF04465B1E012CB8
:1005700001D1002BF7D1002B00D10524204610BD5E
:1005800030B5044604250B200004FFF7E5FF0546BF
:10059000042D17D1C548006902210843C3490861E9
:1005A00008464461006940210843C04908610B20A6
:1005B0000004FFF7D1FF0546BC48006902218843CB
:1005C000BA490861284630BD10B504240B20000448
:1005D000FFF7C2FF0446042C16D1B4480069042179
:1005E0000843B24908610846006940210843AF4901
:1005F00008610B200004FFF7AFFF0446AB48006919
:1006000004218843A9490861204610BD78B50646F3
:100610000C460425002000900B200004FFF79CFFEF
:100620000546042D24D1A1480069012108439F49B2
:10063000086134800B200004FFF78EFF0546042D6F
:1006400010D1B01C0090200C009908800B200004F1
:10065000FFF782FF0546954800694008400093492E
:10066000086105E091480069400840008F49086131
:10067000284678BD70B504460D4604260B200004BC
:10068000FFF76AFF0646042E11D188480069012150
:1006900008438649086125800B200004FFF75CFFB2
:1006A000064682480069400840008049086130469B
:1006B00070BD7E48006901214902084204D17C488E
:1006C0007A4988607B4888607047784800690121D2
:1006D00049028843754908617047744800690121DF
:1006E0004903084371490861704700206F49C9698F
:1006F0000622114201D0012000E00020704730B5F1
:10070000AA250424FFF7F1FF002800D000250B20C4
:100710000004FFF721FF0446042C36D1634800692A
:1007200020210843614908610846006940210843C7
:100730005E4908610B200004FFF70EFF0446042CFD
:100740001BD15A480069202188435849086108464E
:1007500000691021084355490861574805800B205E
:100760000004FFF7F9FE0446052C0ED04F4800693F
:10077000102188434D49086107E0052C05D04B48FE
:1007800000691021884349490861204630BDFCB505
:1007900004464A4E37463046019000900425E44313
:1007A000E6B22004070E2002000E0190200E0090F9
:1007B0000B200004FFF7D0FE0546042D3BD13B483B
:1007C00000691021084339490861FF2E06D03A48D4
:1007D00006810B200004FFF7BFFE0546042D08D15B
:1007E000FF2F06D0344847810B200004FFF7B4FEEA
:1007F0000546042D0AD10198FF2807D02E490198FB
:1008000088810B200004FFF7A7FE0546042D0AD1BE
:100810000098FF2807D028490098C8810B200004C1
:10082000FFF79AFE0546052D05D0204800691021E6
:1008300088431E4908612846FCBD30B5054604249E
:100840000B200004FFF788FE0446042C40D1174813
:1008500000692021084315490861084600694021C4
:100860000843124908610B200004FFF775FE044697
:10087000042C25D10D480069202188430B490861CB
:100880000846006910210843084908610A480580A4
:100890000B200004FFF760FE0446052C18D0034827
:1008A0000069102188430149086111E000200240DD
:1008B00023016745AB89EFCD00F8FF1FFFFF000064
:1008C000052C05D0A1480069202188439F49086173
:1008D000204630BDF0B505460E46174604240B20D1
:1008E0000004FFF739FE0446042C19D1974800692B
:1008F000102108439549086128463043F8213943BF
:100900000843934948800B200004FFF725FE044666
:10091000052C05D08D480069102188438B4908615A
:100920002046F0BD30B5054604240B200004FFF737
:1009300013FE0446042C16D1844800691021084394
:1009400082490861EF202843814948800B20000438
:10095000FFF702FE0446052C05D07C4800691021F3
:1009600088437A490861204630BD30B505460424E5
:100970000B200004FFF7F0FD0446042C16D1734849
:1009800000691021084371490861F7202843704924
:1009900048800B200004FFF7DFFD0446052C05D03E
:1009A0006A4800691021884368490861204630BDC3
:1009B00030B5054604240B200004FFF7CDFD0446A6
:1009C000042C16D161480069102108435F49086171
:1009D0007F2028435E4948800B200004FFF7BCFDC0
:1009E0000446052C05D05948006910218843574911
:1009F0000861204630BD30B5054604240B200004B4
:100A0000FFF7AAFD0446042C16D1504800691021B6
:100A100008434E490861DF2028434D4948800B2098
:100A20000004FFF799FD0446052C05D047480069EE
:100A30001021884345490861204630BD30B5054640
:100A400004240B200004FFF787FD0446042C16D174
:100A50003E480069102108433C490861BF202843F3
:100A60003B4948800B200004FFF776FD0446052C27
:100A700005D0364800691021884334490861204672
:100A800030BD30B5054604240B200004FFF764FD9B
:100A90000446042C14D12D480069102108432B4929
:100AA00008612B4845800B200004FFF755FD0446E4
:100AB000052C05D025480069102188432349086189
:100AC000204630BD70B505460E4604240B200004B8
:100AD000FFF742FD0446042C13D11C480069102185
:100AE00008431A4908612E800B200004FFF734FDEB
:100AF0000446052C05D01548006910218843134988
:100B00000861204670BD1148C0690004000E70479E
:100B10000E48006A7047002905D00C4A126902434A
:100B20000A4B1A6104E0094A12698243074B1A61B1
:100B3000704701460020054AD2680A4201D00120D0
:100B400000E0002070470149C86070470020024063
:100B500000F8FF1F10B504460920C006844209D1E1
:100B60000121480400F0A6FC00210120400400F00F
:100B7000A1FC3CE07948844208D10121000200F048
:100B800099FC0021200200F095FC30E0744884427A
:100B900008D10121000200F08DFC0021200200F0AC
:100BA00089FC24E06F48844209D10121080500F046
:100BB00081FC00210120000500F07CFC17E06A4860
:100BC000844208D10121400200F074FC002160023F
:100BD00000F070FC0BE06548844208D101218805D3
:100BE00000F068FC00210120800500F063FC10BDCE
:100BF000F0B50A4600210023002400BF3DE0012596
:100C00008D402B4615681D402C469C4234D11579E9
:100C1000012D02D01579022D16D185684F000326CB
:100C2000BE40B543856055794E00B5408668354372
:100C30008560858801268E40B543858085889679B4
:100C40008E40B6B23543858005684F000326BE400E
:100C5000B543056015794E00B5400668354305601B
:100C6000C5684F000326BE40B543C560D5794E0028
:100C7000B540C6683543C560491C1029BFD3F0BDD7
:100C80003B49016000210171012141710021817105
:100C9000C171704708B5012212040092009A0A43FC
:100CA0000092009AC261C161009AC261C269009259
:100CB000C269009208BD02460020138A0B4201D08F
:100CC000012000E0002070470146088A7047024674
:100CD0000020938A0B4201D0012000E000207047E1
:100CE0000146888A704782690A4382617047028D93
:100CF0000A4302857047828A4A4082827047002AEE
:100D000003D083690B43836102E0038D0B430385AA
:100D1000704781827047F0B5002300244D07EE0E26
:100D20001546B5402B46CD10AE0005462035AD59D1
:100D30004E07F70E0F26BE40B543CE10B60007464D
:100D40002037BD51CD10AE003D46AD591D432C4658
:100D5000CD10AD003E467451F0BD000000040048C7
:100D600000080048000C004800100048001400482B
:100D7000FFFF000000218278002A27D0274A0323A2
:100D80001B02D21803789B109B00D158027892075F
:100D9000D30EFF229A400B4693431946427892079E
:100DA000120E03789B07DB0E9A4011431B4A032364
:100DB0001B02D21803789B109B00D1500278D306F7
:100DC000DB0E01229A40154B1A6007E00278D30629
:100DD000DB0E01229A40114B80331A6070470029C4
:100DE00005D00F4A126902430D4B1A6104E00C4A08
:100DF000126982430A4B1A617047042806D10949D7
:100E0000096904221143074A116105E0054909698E
:100E100004229143034A11617047000000E100E0A1
:100E200000ED00E000E000E0F74800680121084321
:100E3000F549086008464068F4490840F2494860AE
:100E400008460068F2490840EF4908600846006813
:100E5000012189048843EC490860084640683F2125
:100E600009048843E84948600846C06A000900014F
:100E7000C8620846006BE7490840E3490863084632
:100E8000406B4008400048630020886070470021A4
:100E9000DD4A917011468870704710B502460021F6
:100EA000002300205111002902D1D74C23680BE008
:100EB000012902D1D44C236A06E0022902D1D24C86
:100EC000636A01E0D04C636BD106C90E01248C40EB
:100ED0001C4201D0012000E0002010BD38B50020E8
:100EE00000900024002500BF1120FFF7D6FF054623
:100EF0000098401C0090052109030098884201D009
:100F0000002DF1D01120FFF7C8FF002801D00124E7
:100F100000E00024204638BD01460020BA4A10688F
:100F2000F82302469A431046CA001043B64A10609E
:100F30007047002806D0B449096801221143B24A1B
:100F4000116005E0B049096849084900AE4A1160DE
:100F5000704701460020AC4A506BF82302469A4382
:100F60001046CA001043A84A50637047002806D0B4
:100F7000A549496B01221143A34A516305E0A249E7
:100F8000496B49084900A04A51637047002806D0C0
:100F90009D49496B042291439B4A516305E09A495C
:100FA000496B04221143984A516370479649096A74
:100FB00049084900944A11621146096A0422914382
:100FC000914A11621146096A0143116270478E49C4
:100FD000096A182291438C4A11621146096A014339
:100FE00011627047002806D08749496A01221143DF
:100FF000854A516205E08449496A49084900824AA4
:1010000051627047804A52687B23DB039A437E4BD0
:101010005A601A46526803460B431A437A4B5A6089
:101020007047002807D07849096801221206114349
:10103000754A116006E0744909680122120691435D
:10104000714A11607047002807D06F49496B01222F
:10105000120411436C4A516306E06B49496B01224B
:1010600012049143684A5163704701460020664A62
:10107000D06A0009000102460A431046624AD06263
:101080007047002807D0604909680122D204114343
:101090005D4A116006E05C4909680122D20491436F
:1010A000594A1160704702460020574B58680002A9
:1010B000000A13060B431843534B58607047014610
:1010C0000020514A50688008800002460A431046BA
:1010D0004D4A506070474C4840680C2108407047AA
:1010E00001460020484A5068F02302469A431046C1
:1010F00002460A431046444A5060704701460020A9
:10110000414A506807231B0202469A431046024692
:101110000A4310463C4A506070473B4949680122E7
:1011200092039143384A51601146496882B2114393
:10113000354A51601146096B92159143324A116349
:101140001146096B020C11432F4A116370472E4957
:10115000096B402291432C4A11631146096B0143EC
:10116000116370472849096B10229143264A116385
:101170001146096B0143116370470021010F0129DA
:1011800006D1214A126B920892001F4B1A6310E09D
:10119000022907D11C4A126B03231B049A431A4BE2
:1011A0001A6306E0184A126B03239B049A43164BFA
:1011B0001A63154A126B0243134B1A6370471249A4
:1011C000096B80229143104A11631146096B014358
:1011D00011637047FEB504460025002600200290EA
:1011E000019000900027084840680C2108400546FF
:1011F000002D06D0042D11D0082D12D00C2D36D183
:1012000032E00548206035E0001002400CB8FF08CD
:10121000FFFFF6FEACFEF0FF00127A00CC48206023
:1012200028E0CC4840680F21890408400646C94898
:1012300040680321C90308400290B00C861C029844
:10124000002803D1C448374647430BE0C148C06A71
:101250000007000F401C0190BD48019904F066F89A
:1012600070430746276005E0BC48206002E0B848AC
:10127000206000BF00BFB7484068F0210840054625
:101280002D09B748405D009020680099C840606013
:10129000B048406807210902084005462D0AB048B9
:1012A000405D009061680098C140A160A948006B52
:1012B000FF2101310840884202D0AA48E0600DE0D9
:1012C000A4484068012189030840884203D0A068EF
:1012D0004008E06002E0A0688008E0609D48006B84
:1012E00040210840402802D09F48206102E00120B0
:1012F000C00320619748006B10210840102802D0DD
:101300009348606101E0206860619248006B80074B
:10131000800F02D1A068A06119E08E48006B8007A1
:10132000800F012802D12068A06110E08948006B7D
:101330008007800F022802D18003A06107E0854862
:10134000006B8007800F032801D18148A06181488C
:10135000006B03210904084202D1A068E06120E08B
:101360007C48006B032109040840012109048842DC
:1013700002D12068E06114E07648006B0321090483
:10138000084001214904884202D18010E06108E050
:101390007048006B032109040840884201D16C4861
:1013A000E0616C48006B03218904084202D1A06807
:1013B000206220E06748006B032189040840012176
:1013C0008904884202D12068206214E06148006BE1
:1013D0000321890408400121C904884202D1001177
:1013E000206208E05B48006B0321890408408842C2
:1013F00001D1574820625748006B8021084080285F
:1014000002D05648606200E06762FEBD5149096A39
:101410000143504A11627047002807D04D49096ABC
:101420000122D20311434B4A116206E04949096A7D
:101430000122D2039143474A11627047002807D026
:101440004449096A012212041143424A116206E02A
:101450004049096A0122120491433E4A11627047D1
:10146000002905D03B4A526902433A4B5A6104E0D5
:10147000384A52698243374B5A617047002905D078
:10148000344A92690243334B9A6104E0314A9269CB
:101490008243304B9A617047002905D02D4AD269AA
:1014A00002432C4BDA6104E02A4AD2698243294B79
:1014B000DA617047002905D0264A926A0243254B1B
:1014C0009A6204E0234A926A8243224B9A627047EE
:1014D000002905D01F4AD26802431E4BDA6004E09F
:1014E0001C4AD26882431B4BDA607047002905D042
:1014F000184A12690243174B1A6104E0154A12692F
:101500008243144B1A617047002905D0114A527A60
:101510000243104B5A7204E00E4A527A82430D4B3A
:101520005A7270470B48406A01210906084309496D
:101530004862704701460020064A92680A4201D07C
:10154000012000E0002070470249887270470000C7
:1015500000127A000010024000093D00006CDC021D
:1015600014000020809FD5001280000044480068CD
:101570008007800F424908600020886000214048B1
:10158000C160016141618069FF21013108433C492B
:101590008861704701460020394A10688008800041
:1015A00002460A431046364A10607047002905D0AB
:1015B000334A12680243324B1A6004E0304A126820
:1015C00082432F4B1A607047002905D02C4A1268BD
:1015D00002432B4B1A6004E0294A12688243284BCD
:1015E0001A60704726490968C0229143244A116055
:1015F0001146096801431160704730B500228B071E
:101600001C0F0F23A3401A461D4B08338C10A40057
:101610001B5993431A4C08348D10AD006351234677
:101620008C10A4001B598C07250F0446AC402343A3
:10163000134C08348D10AD00635130BD0146104885
:1016400080300A0E920080580A02120A1040704739
:101650000B49896901430A4A91617047014600209C
:10166000074A9269FF2301331A4201D0012000E0AA
:1016700000207047024989690143014A916170471E
:101680000000014010B50446F748844208D101210A
:10169000C014FFF71DFF0021E014FFF719FF62E0FF
:1016A00001208007844208D101210846FFF71EFF70
:1016B00000210120FFF71AFF55E0EC48844208D1D1
:1016C00001210220FFF712FF00210220FFF70EFF89
:1016D00049E0E748844208D101211020FFF706FFC6
:1016E00000211020FFF702FF3DE0E248844208D1CC
:1016F00001212020FFF7FAFE00212020FFF7F6FE4F
:1017000031E0DD48844208D101218015FFF7EEFE6B
:101710000021A015FFF7EAFE25E0D848844209D150
:1017200001210804FFF7D4FE002101200004FFF787
:10173000CFFE18E0D248844209D101214804FFF7C6
:10174000C7FE002101204004FFF7C2FE0BE0CD4898
:10175000844208D101218804FFF7BAFE002101204C
:101760008004FFF7B5FE10BD00220288BE4B9842F0
:1017700006D001239B07984202D0BC4B984203D16C
:10178000C14B1A404B881A43B94B984203D0BF4B08
:101790001A400B891A4302804B68C3620B88038589
:1017A000B14B984208D0B54B984205D0B44B984203
:1017B00002D0B44B984201D18B7A038601238382F5
:1017C00070470021C94341600021018001814180AF
:1017D000817270470185828270470A460021018824
:1017E000A94B19400B4613431946018070474162CB
:1017F0007047C16270470146486A70470146088DCC
:101800007047002904D0028802231A43028004E0B2
:1018100002889D4B6E331A4002807047002904D025
:10182000028804231A43028004E00288964B6C333A
:101830001A4002807047002904D0028880231A438E
:10184000028004E00288904B103B1A4002807047EF
:1018500002888D4B68331A40028002880A43028056
:1018600070470288894B1A40028002880A4302802E
:101870007047002904D0028801231A43028004E043
:101880000288814B6F331A40028070470A884B8868
:101890001A438B881A43CB881A430B891A434B8906
:1018A0001A438B891A4344231A527047002101803E
:1018B00041808180C18001814181818170470029FF
:1018C00007D04422125A0123DB031A4344231A523D
:1018D00005E04422125A53045B0C44221352704711
:1018E00070B5002400220023058C674E6F3635400A
:1018F0000584028C8388048B634D2C40B51E2C40DC
:101900000D882C43751E2A408D892A434D882A4311
:10191000554DA84208D0594DA84205D0584DA8426F
:1019200002D0584DA84212D1574D68352A40CD8972
:101930002A43554D6C352A408D882A43524D903D9F
:101940002B40534D2B400D8A2B434D8A2B438380D4
:1019500004838D684563028470BD70B50024002245
:101960000023058C484E603635400584028C838800
:10197000048B484D2C40454D2C400D782D062D0CE8
:101980002C43414D50352A408D892D052D0C2A437D
:101990004D882D052D0C2A43334DA84202D0374DDA
:1019A000A8421CD13C4D2B400D8AAD042D0C2B437D
:1019B0002D4DA84213D1344D103D2A40CD892D051F
:1019C0002D0C2A43304D30352A408D882D052D0CA5
:1019D0002A43324D2B404D8AAD042D0C2B4383807E
:1019E00004838D688563028470BD70B50024002275
:1019F0000023058C244E903E35400584028C83885C
:101A0000848B214D2C40204D6D352C400D882C436E
:101A10001F4D2A400D7B2D062D0C2A438D782D0657
:101A20002D0C2A43104DA84217D11C4D2A408D7B06
:101A30002D062D0C2A43184D2A400D792D062D0C0C
:101A40002A43174D2B40174D2B400D8A2D052D0C89
:101A50002B434D8A2D052D0C2B43838084838D6869
:101A6000C563028470BD0000002C014000040040EA
:101A700000100040001400400020004000400140E1
:101A800000440140004801408FFF0000FFFC0000BF
:101A9000FFFD0000FF8F0000FFFB0000FFF70000CC
:101AA000FFEF0000FFDF000070B5002200230024DC
:101AB000058CF94E35400584038C8488828BF74D64
:101AC0002A40F74D2A400D782D062D0C2A43F54D5E
:101AD0002B400D7B2D072D0C2B438D782D072D0CC6
:101AE0002B43F14DA84205D1F04D2C400D8AAD0598
:101AF0002D0C2C43848082838D680564038470BD23
:101B0000002101804180818081608181C1810182C9
:101B10004182704770B503460020002418461830F3
:101B200001258D40ACB21D8CA5431D84002901D038
:101B3000082909D14D10281805687026B54305609D
:101B40000568154305600DE00D1F2D046D0C281868
:101B5000056807263603B543056005681606360C8A
:101B60003543056070BD4163704781637047C16351
:101B70007047016470470A460021018BCC4B194025
:101B80000B4613431946018370470A460021018B17
:101B9000C24B194013061B0C1943018370470A46B8
:101BA0000021818BC24B19400B4613431946818398
:101BB00070470A460021818BB84B194013061B0C55
:101BC000194381837047002904D0828801231A4376
:101BD000828004E08288B64B6F331A40828070475F
:101BE0000A460021018BB24B683319400B46134360
:101BF0001946018370470A460021018BAD4B1940FD
:101C000013061B0C1943018370470A460021818B80
:101C1000A74B683319400B4613431946818370471D
:101C20000A460021818BA34B194013061B0C194354
:101C3000818370470A460021018B9D4B6C3319400C
:101C40000B4613431946018370470A460021018B56
:101C5000994B194013061B0C1943018370470A4620
:101C60000021818B924B6C3319400B46134319466C
:101C7000818370470A460021818B8F4B19401306E0
:101C80001B0C1943818370470A460021018B884B46
:101C9000103B19400B4613431946018370470A460F
:101CA0000021018B4904490C13061B0C19430183C5
:101CB00070470A460021818B7D4B103B19400B4633
:101CC00013431946818370470A460021818B4904DA
:101CD000490C13061B0C1943818370470A460021E7
:101CE000018C734B6E3319400B4613431946018424
:101CF00070470A460021018C6D4B683319400B4632
:101D000013431946018470470A460021018C684B31
:101D10005033194013051B0C1943018470470A46C0
:101D20000021018C624B103B194013051B0C194319
:101D3000018470470A460021018C604B194013064C
:101D40001B0C1943018470470A460021018C594B32
:101D5000194013061B0C1943018470470A460021E1
:101D6000018C504B194013071B0C19430184704719
:101D700002894F4B68331A40028102890A4302816B
:101D8000704730B5002301248C40A3B2048C9C43DF
:101D90000484048C15468D40ADB22C43048430BDC0
:101DA00030B5002304248C40A3B2048C9C430484EB
:101DB000048C15468D40ADB22C43048430BD0029FF
:101DC00004D0828804231A43828004E08288384B3E
:101DD0006C331A4082807047828B394B1A40828361
:101DE000828B0B061B0C1A4382837047F8B50C4696
:101DF0000021002500260096068C274F3E400684D1
:101E0000818B058C2607360C00962E4E3140160627
:101E1000360C31431E07360C31432B4E354001271B
:101E20003F03009E3E43354381830584F8BD828B8A
:101E30001F4B64331A408283828B0A43828370472C
:101E4000F8B50C460021002500260096068C184F98
:101E5000903F3E400684818B058C2606360C00960A
:101E6000134E833E31401E05360C16433143174E48
:101E70003540FF270137009E3E433543818305846B
:101E8000F8BD028B0E4B1A400283028B0B061B0C13
:101E90001A43028370470000FFEF0000FF8F00002D
:101EA000FFFC0000FFDF0000002C0140FFBF00002E
:101EB0008FFF0000FFF70000FFFB0000FFFD0000A8
:101EC000FFF30000FF0C0000FF5F0000FFF50000C3
:101ED000F8B50C460021002500260096068CE64F3A
:101EE0003E400684018B058C2605360C0096E34E99
:101EF00031401E07360C31431606360C3143DE4E98
:101F0000903E35401027009E3E43354301830584B3
:101F1000F8BD028BD84B1B1D1A400283028B0A436B
:101F200002837047F0B50C4600210025068CD24F85
:101F30000F373E400684018B058CCF4EE33E314087
:101F40001E05360C16433143CB4EB61D35400126D7
:101F50002643354301830584F0BD70B505460C4624
:101F6000208800280AD12389A28861882846FFF7A3
:101F7000D9FFE1882846FFF7CCFF25E02088042818
:101F80000AD12389A28861882846FFF7A1FFE1884A
:101F90002846FFF776FF17E0208808280AD1238912
:101FA000A28861882846FFF74BFFE1882846FFF7A3
:101FB0003EFF09E02389A28861882846FFF716FFC3
:101FC000E1882846FFF708FF70BD002101804180AD
:101FD000012181800021C18001817047F8B505464B
:101FE0000C46002601276088002801D1022600E067
:101FF0000026A088012801D1022700E001272088BF
:10200000002814D12389A28861882846FFF78AFF17
:10201000E1882846FFF77DFF23893A463146284666
:10202000FFF756FFE1882846FFF72BFF13E02389CF
:10203000A28861882846FFF74BFFE1882846FFF712
:1020400020FF23893A4631462846FFF76BFFE18897
:102050002846FFF75EFFF8BD0146486B7047014612
:10206000886B70470146C86B70470146086C704723
:10207000002A03D083890B43838102E083898B4349
:10208000838170478182704702460020138A0B4289
:1020900001D0012000E000207047CA43028270474F
:1020A00030B50246002000230024158A0D402B463F
:1020B00095890D402C46002B03D0002C01D0012027
:1020C00000E0002030BDCA430282704710B50B46C5
:1020D00013434824235210BD002A03D083890B43A5
:1020E000838102E083898B4383817047002904D078
:1020F000828808231A43828004E082885E4B08337A
:102100001A408280704701895B4A0932114001817F
:1021100070470A4600210189574B603B19400B4626
:10212000134319460181704730B504460D462946D0
:102130002046FFF7EEFF208907210843208130BDAC
:10214000F8B504460D4616461F46602D06D13B469F
:10215000012231462046FFF7BBFE05E03B46012247
:1021600031462046FFF7DEFE29462046FFF7D1FF25
:102170002089072108432081F8BD30B50C46002195
:102180000189C9B21D062D0C154325432943018140
:1021900030BDFFB505460E46174600243A46314687
:1021A0002846039BFFF7E9FF2C8933480930044098
:1021B00007200443304860380440702004432C81D9
:1021C000FFBDF0B504460D4616461F463B46324657
:1021D00029462046FFF7D1FF2089012189030843C2
:1021E0002081F0BD8288244B603B1A408280828827
:1021F0000A438280704702891F4B09331A400281CB
:1022000002890A430281704702891B4B703B1A40C6
:10221000028102890A4302817047F0B50C46002111
:10222000002500260189058B068C134F093739409C
:102230000F4627433946124F3D40FF2702373D43A3
:102240000D4F9A3F3E401F053F0C17433E4301810F
:1022500005830684F0BD002904D0828880231A43B8
:10226000828004E08288044B703B1A408280704771
:102270005022115270470000EFFF0000FF0C0000D9
:10228000FCFC000010B50446F748844209D1012146
:102290008803FFF71DF9002101208003FFF718F9DB
:1022A00056E0F248844209D101214804FFF71EF9A3
:1022B000002101204004FFF719F949E0EC4884426D
:1022C00009D101218804FFF711F9002101208004C0
:1022D000FFF70CF93CE0E748844209D10121C8042A
:1022E000FFF704F900210120C004FFF7FFF82FE0F9
:1022F000E148844209D101210805FFF7F7F80021E0
:1023000001200005FFF7F2F822E0DC48844208D102
:1023100001212020FFF7DCF800212020FFF7D8F86A
:1023200016E0D748844208D101214020FFF7D0F8B9
:1023300000214020FFF7CCF80AE0D248844207D1C0
:1023400001218020FFF7C4F800218020FFF7C0F8AA
:1023500010BDF0B58BB004460D46002700200A9052
:1023600000262068400840002060666803210903B9
:10237000304688430646A868064366602668C24819
:102380000640E968686808432969084306432660EF
:10239000A668032109023046884306466869064359
:1023A000A6606846FEF716FFAF48844202D1069841
:1023B0000A900DE0AD48844202D107980A9007E0E8
:1023C000AB48844202D108980A9001E002980A9032
:1023D00020680121C90308420CD029680A9A5000DC
:1023E00002F0A4FF074629680A9A500002F09EFFF7
:1023F0000E4609E029680A9802F098FF0746296806
:102400000A9802F093FF0E4628684008B04200D8B0
:102410007F1C20680121C903084206D03807460FF7
:1024200038469A49084030430746A7810BB0F0BDB3
:102430004B21C9010160002141608160C1600C2114
:10244000016100214161704710B5002242680F24EC
:1024500024021346A3431A464C680B6823438C6836
:102460002343CC6823431A43426010BD002101601E
:1024700041608160C1607047002904D00268012377
:102480001A43026003E0026852085200026070477B
:10249000002A03D003680B43036002E003688B4308
:1024A00003607047002905D002680123DB031A434B
:1024B000026004E002680123DB039A430260704774
:1024C000002905D082680123DB021A43826004E000
:1024D00082680123DB029A4382607047002905D09D
:1024E00042680123DB041A43426004E0426801238E
:1024F000DB049A4342607047002905D042680123FB
:102500009B041A43426004E0426801239B049A43FF
:1025100042607047002A03D043680B43436002E0E7
:1025200043688B4343607047002905D0426801230C
:10253000DB031A43426004E042680123DB039A4351
:1025400042607047002905D042680123DB051A4329
:10255000426004E042680123DB059A434260704711
:102560004269120E1206426142690A434261704793
:10257000028AFF231B021A400282028A0A43028255
:102580007047002904D0026802231A43026003E066
:10259000026802239A4302607047826803231B0586
:1025A0009A43826082680A4382607047002905D09E
:1025B000426801231B051A43426004E0426801237C
:1025C0001B059A4342607047426803235B059A43A8
:1025D000426042680A4342607047CA05D20D0285D4
:1025E00070470146888CC005C00D704742681202D2
:1025F000120A426042680B061A4342607047002983
:1026000005D0026801235B031A43026004E00268FC
:1026100001235B039A430260704702680123DB02D7
:102620009A43026002680A430260704742681023BE
:102630009A43426042680A434260704742682023DE
:102640009A43426042680A4342607047002905D0BD
:10265000426801239B031A43426004E0426801235D
:102660009B039A4342607047003801400044004099
:1026700000480040004C0040005000400014014061
:1026800000180140001C0140F3E9FFFFF0FF0000CB
:10269000002904D0826808231A43826003E082681C
:1026A00008239A4382607047028AD2B20282028A69
:1026B0000B021A4302827047002904D0826820234B
:1026C0001A43826003E0826820239A438260704745
:1026D000002904D0826810231A43826003E08268D4
:1026E00010239A4382607047826807235B049A43F1
:1026F000826082684B041A4382607047426912020A
:10270000120A426142690B061A43426170478268AD
:1027100004239A43826082680A43826070470029DA
:1027200004D0826802231A43826003E08268022395
:102730009A4382607047002905D0826801239B0379
:102740001A43826004E0826801239B039A438260FB
:10275000704782680123DB039A43826082680A43E0
:102760008260704702681F235B059A43026002681B
:102770004B051A430260704702681F231B049A43EB
:10278000026002680B041A4302607047002A03D0FB
:1027900083680B43836002E083688B4383607047E8
:1027A000826801235B039A43826082680A438260E5
:1027B0007047F8B503460024002600960025002047
:1027C00018460E04340ECEB200960127009EB74084
:1027D0003D46022C01D1001D02E0032C00D108303F
:1027E000002A03D006682E43066002E00668AE4366
:1027F0000660F8BD002A03D0038B0B43038302E07D
:10280000038B8B4303837047826801231B039A4326
:10281000826082680A438260704702460020D36962
:102820000B4201D0012000E0002070470162704798
:1028300070B502460B4600240021002500201E042E
:10284000350ED9B201268E403146012D02D11668CF
:10285000314006E0022D02D15668314001E0966811
:1028600031401C0C0126A6403446D669344000296C
:1028700003D0002C01D0012000E0002070BD10B575
:10288000002300220B0C01249C402246026210BD52
:10289000FD4AFE4B1A601A4650609160FC4A1A606D
:1028A000FC4A1A607047FA48F8490860704710B54A
:1028B0000446FF200530005D002801DD012000E016
:1028C0000020FF210431095D002901D1012100E030
:1028D000002108421AD00022EF49F048FFF769FFB3
:1028E0000122EF49ED48FFF764FF01208003ED4925
:1028F0008861FF200430025D005D401CC3B2FF20F0
:1029000004300355A15CE548FFF767FE10BD10B524
:102910000446FF200530005D002801DD012000E0B5
:102920000020FF210431095D002901D1012100E0CF
:10293000002108421AD00022D749DB48FFF739FFAF
:102940000122D749D848FFF734FF02200921C906E0
:102950008861FF200430025D005D401CC3B2FF208F
:1029600004300355A15CD048FFF737FE10BD00BF0F
:10297000CE49C968C907C90FFAD1CC49C968202214
:10298000114202D02021C94AD160C84909690222F6
:102990001143C64A11611146486109694022114339
:1029A000C24A116100BFC149C96820221142FAD050
:1029B0002021BE4AD1601146096902229143BB4AD7
:1029C0001161704730B5034600BFB84CE468E407B6
:1029D000E40FFAD1B54CE46820252C4202D0202423
:1029E000B24DEC60B14C246901252C43AF4D2C61F4
:1029F00000200FE0441C1C5D24021D5C64190C5275
:102A000000BFAA4CE46820252C42FAD02024A74D10
:102A1000EC60801C9042EDD3A44C246964086400EF
:102A2000A24D2C6130BD01460868704710B50446C0
:102A30001E209F490885052048851F20888528205D
:102A4000C885122008860720488601208886032032
:102A5000C886012C03D03C200887052048871E200B
:102A6000934988872020C8871921914840300180E8
:102A7000172141800F2181800521C18082210181A0
:102A8000FDF740FD8B48FFF772FF362289498848E1
:102A90002830FFF797FFFDF740FD10BD00B58548D2
:102AA000FFF7C1FF824988628248001DFFF7BBFF24
:102AB0007F49C8627F480830FFF7B5FF7C4908634B
:102AC0007C480C30FFF7AFFF7949486379481030F4
:102AD000FFF7A9FF7649886376481430FFF7A3FF14
:102AE0007349C86373481830FFF79DFF7049086445
:102AF00070481C30FFF797FF6D4948646D482030DF
:102B0000FFF791FF6A4988646A482430FFF78BFF1A
:102B10006749C86400BD10B5FDF7F4FC6548FFF7D0
:102B200026FF3622634962482830FFF74BFFFDF746
:102B3000F4FC10BD5F48FFF776FF401C01D1FFF7A2
:102B400075FFFFF7ABFF00F078FF00F0A9FF00F082
:102B5000DAFF01F03CF800F033FF00F009FF01213B
:102B6000C902554800F05DFB0421534800F059FBB1
:102B7000FF210131504800F054FB08214E4800F07D
:102B800050FB012189024C4800F04BFB0121490216
:102B9000494800F046FB1021474800F042FB012164
:102BA000C9030920C00600F03CFB0A2001F07AF9B5
:102BB00000F0EDFB00F082FF0020404988703C48A7
:102BC000C08EC1B23E488171262101813D480181FC
:102BD00001203D4948703648808E887001F04CF8DD
:102BE00001F0A9F801F027F938490420FFF750FE59
:102BF00028E2FFF758FE01F09FFE2D48808E3249F3
:102C000088702B48C18E2E488079814236D0284862
:102C1000C08EC1B22A488171234800684008400034
:102C2000214908602248C08E002802D196212448FC
:102C300001811F48C08E012802D14B21204801810B
:102C40001B48C08E022802D130211D48018118483E
:102C5000C08E032802D12621194801811448C08E54
:102C6000042802D11921164801811148C08E052877
:102C700002D113211248018101F05DF80C48603047
:102C800000790221084023E0555500000030004043
:102C9000AAAA0000CCCC00000501050000380140C4
:102CA00006010600000800480044004000200240E1
:102CB0008402002000FC0008000400486C00002092
:102CC0007A0200207001002056000020520300000C
:102CD000084208D101F09BFF02F05EF902F0C5F84E
:102CE00002F0F8FAFCE00020D74908808870D74845
:102CF000008B002802D1D649486305E0D348008BF9
:102D000014214843D2494863D049498BD14AD26AF9
:102D100051430846642102F009FB80B2CD4940319D
:102D20000860CA48243040782021084204D001219C
:102D3000C948FDF7D8FF03E00121C748FDF7D7FFD9
:102D4000C348406B002808D0C04840380088802124
:102D50000843BE494039088007E0BC484038008835
:102D600080218843B94940390880BA48403000681A
:102D7000002808D0B5484038008840210843B349AE
:102D80004039088007E0B148403800884021884336
:102D9000AE49403908800121AF48FDF798FF00286F
:102DA00008D0AA484038008820210843A749403964
:102DB000088007E0A5484038008820218843A349BF
:102DC00040390880A14824304078C007C00F0CD09B
:102DD00001200003A04988619C48403800880221F6
:102DE00008439A49403908800CE0012000039A49C1
:102DF0002031088195484038008802218843934952
:102E000040390880914824304078022108420BD094
:102E10000803914988618D48403800881021084393
:102E20008A49403908800CE0012040038A4920315A
:102E300008818648403800881021884383494039FA
:102E40000880824824304078042108420BD00803CF
:102E5000814988617D4840380088082108437B49C2
:102E6000403908800CE0012080037B492031088133
:102E700076484038008808218843744940390880E2
:102E8000724824304078082108420BD00803724968
:102E900088616E4840380088042108436B494039F6
:102EA00008800CE00120C0036B492031088167488D
:102EB00040380088042188436449403908806748C5
:102EC000007805280CDD6148203000790221084295
:102ED00006D05E482030007988435C492031087173
:102EE0005B49C86A642102F021FA04465849486BDC
:102EF000214602F01BFA5549403988825549C96A72
:102F0000142251430846642102F010FA0446514944
:102F100040310968142251430846214602F006FA5E
:102F20004A494039C88201214B48FDF7D0FE0028AC
:102F300004D0642045494039088303E00020434918
:102F40004039088346484079012805D1454801F0B9
:102F5000D4FB4448FFF7ABFC43484079012805D136
:102F6000424801F05BFC4148FFF7D1FC4048FFF7C5
:102F70005AFD36494039896A884250D13C48001D83
:102F8000FFF751FD31494039C96A884247D1384875
:102F90000830FFF748FD2D494039096B88423ED182
:102FA00033480C30FFF73FFD28494039496B8842D0
:102FB00035D12F481030FFF736FD24494039896B51
:102FC00088422CD12A481430FFF72DFD1F49403983
:102FD000C96B884223D126481830FFF724FD1B49CE
:102FE0004039096C88421AD121481C30FFF71BFD7B
:102FF00016494039496C884211D11D482030FFF7ED
:1030000012FD12494039896C884208D11848243091
:10301000FFF709FD0D494039C96C884201D0FFF71F
:103020007AFD0A4820300079C007C00F0AD001207D
:10303000FFF7FCFC054820300079410849000348AF
:1030400020300171D5E500006C000020C402002092
:10305000002C014000040040000400486B000020E8
:1030600070010020700000207A0200207A01002008
:1030700000FC00087CB505460C460094012168461A
:1030800041710171817169462846FDF7B1FD7CBD32
:1030900070B504460D46164629462046FFF7EAFF5E
:1030A0002585032000F013FF002E00D0A5615020DD
:1030B00000F00DFFA56170BDF8B506460F46154638
:1030C000002409E028462041C207D20F3946304685
:1030D000FFF7DEFF601CC4B2082CF3DBF8BD7CB543
:1030E00005460C460094012168464171002101719A
:1030F000C17169462846FDF77BFD7CBD70B504466D
:103100000D460026208A284201D1022070BD2946A2
:103110002046FFF7AFFF2585FF20E13000F0D7FE06
:10312000A56129462046FFF7DAFF3C2000F0CFFEDC
:10313000208A284201D0012000E000200646FF201E
:10314000A53000F0C4FE3046E0E77CB505460C46ED
:10315000002601214804FEF783F901218804FEF7C7
:103160007FF90094012168464171017181716946BE
:103170002846FDF73DFD21462846FFF7BFFF0646DE
:10318000CC2221462846FFF797FF4E2221462846AB
:10319000FFF792FF7D2221462846FFF78DFFB222DE
:1031A00021462846FFF788FF1F2221462846FFF7C1
:1031B00083FF30467CBD70B504460D460026294687
:1031C0002046FFF757FF2585012000F080FEA5610E
:1031D000012000F07CFE29462046FFF780FF208A70
:1031E000284201D0012000E0002006462D2000F0FA
:1031F0006EFE304670BDF8B506460F460025002429
:103200000BE039463046FFF7D6FF002803D00120F7
:10321000A0402843C5B2601CC4B2082CF1DB28468C
:10322000F8BD70B504460D4629462046FFF766FFF7
:10323000CC2229462046FFF73FFF4422294620465C
:10324000FFF73AFF70BDF3B585B0002600270024D4
:1032500000200190009006990598FFF74FFF074660
:10326000002F72D1CC2206990598FFF725FFBE22C8
:1032700006990598FFF720FF00BF0EE00699059814
:10328000FFF7B9FF02A90855082C04DA02A8005D6F
:10329000704036490E5C601CC4B2092CEEDB6846F7
:1032A000007CB0420DD0681CC5B2012D05DA06992C
:1032B0000598FFF7C8FF07B0F0BD00250120800288
:1032C000F9E700256846017A0170417A4170415F53
:1032D00009110091407A802108421FD06846007A87
:1032E000082108420DD1684600880F2109030843D0
:1032F000C0430A214843401DC043401C00B2019016
:103300001FE0684600880F2109030843C0430A21D3
:103310004843C043401C00B2019012E06846007A66
:103320000821084207D0684600880A214843401D0A
:1033300000B2019005E0684600880A21484300B2C7
:103340000190019880B2B6E7FFE73802B3E77CB599
:1033500005460C4600940121684641710171002127
:10336000817169462846FDF743FC7CBD0A5500087B
:10337000704700BFFEE770477047704710B50120E7
:103380000003FDF783F80120F849087010BD10B55F
:10339000F748008A40084000F54908824914F5487A
:1033A000FDF7A9FCF4480078401CF3490870F34885
:1033B0000078401CF14908700020EC490870F04882
:1033C0000088401CEE490880EE4800881E2805DA77
:1033D000EC480088401CEB49088000E000BFEA4848
:1033E00000880A2805DAE8480088401CE649088079
:1033F00000E000BFE54800794006400EE349097B44
:103400004906490E401A01282CDCE048008830218A
:10341000084227D1DD480078C007C00F22D0DB4822
:1034200000794006400ED949098D88421ADDD748F7
:103430008088FF210131084214D1D4488088490096
:1034400008420FD1D1488089491008420AD1CF489B
:1034500080894900084205D1CD480088401CCC49EC
:10346000088002E00020CA490880CA48406BCA4967
:1034700009884018C749C96A884207D2C548406BC5
:10348000C54909884018C34948630CE0C148406BEE
:10349000C14909884018BF49C96A884203D3BD4859
:1034A000C06ABC494863BB49C96A1E2251430846E9
:1034B000642101F03BFFB749496BB84A1288891A69
:1034C000884206D2B348406BB4490988401AB149D2
:1034D00048630121C902B248FFF7B5FE0446552CE6
:1034E00009D1B0484078032805DAAE484078401C3E
:1034F000AC49487004E00020AA494870A348C48041
:103500000421A748FFF79FFE0446552C09D1A54882
:103510008078032805DAA3488078401CA149887088
:1035200004E000209F49887098484482FF210131BF
:103530009B48FFF788FE0446552C09D19948C0786E
:10354000032805DA9748C078401C9649C87004E003
:1035500000209449C8708D48848008219048FFF766
:1035600072FE0446552C09D18E480079032805DAED
:103570008C480079401C8B49087104E0002089497F
:103580000871824884810020804908820121490213
:103590008348FFF758FE0446552C09D181488079AD
:1035A000032805DA7F488079401C7E49887104E051
:1035B00000207C4988717548C48110217848FFF744
:1035C00042FE0446552C09D17648C079032805DA15
:1035D0007448C079401C7349C87104E000207149E7
:1035E000C8716A4804810121C9030920C006FFF798
:1035F0002AFE0446552C09D16A48007A032805DAC8
:103600006848007A401C6749087204E00020654958
:1036100008725E4844810121C9026148FFF701FE3A
:1036200004215F48FFF7FDFDFF2101315C48FFF7F2
:10363000F8FD08215A48FFF7F4FD012149025848D6
:10364000FFF7EFFD10215648FFF7EBFD0121C903FD
:103650000920C006FFF7E5FD10BD10B552495348DB
:10366000FFF7E6F8002819D04F495048FFF707F94F
:1036700000214F4801808078FE2801DD4C48817090
:103680004A48FEF7AEFFC1B2494882788078401CB4
:10369000C3B247488370FF380138815445494348D5
:1036A000FFF7C6F8002832D042494048FFF7E7F854
:1036B00041493E48FFF7E3F83D48C178007981422F
:1036C00010DA3B48C278C078401CC3B23848C37097
:1036D000FF380138815C3548FEF77FFF002026491E
:1036E000087014E03148FEF77CFF0021304801717A
:1036F000012080031F492031088101222A492B48DB
:10370000FFF757F800222B492848FFF752F82748BF
:10371000C069082108420ED12448C069022108422C
:1037200009D12248C069C007C00F04D12348C0692D
:103730000904084218D01D48006A082108431B49A3
:1037400008620846006A02210843184908620846D0
:10375000006A01210843154908621848006A0121DE
:10376000490408431549086210BD000068000020A4
:1037700000480140000800486A0000206B0000205B
:103780006C0000205A000020640000208402002009
:1037900062000020002C01405C0000205E00002040
:1037A000000400484E0300200501050000380140D8
:1037B00070010020060106000003010000440040E3
:1037C00010B562496248FFF733F8002819D05F4905
:1037D0005F48FFF754F800215E4801808078FE289A
:1037E00001DD5C4881705A48FEF7FBFEC1B25948C2
:1037F00082788078401CC3B256488370FF38013805
:10380000815455495248FFF713F8002830D05249E7
:103810004F48FFF734F851494D48FFF730F84D480D
:10382000C1780079814210DA4A48C278C078401CD9
:10383000C3B24848C370FF380138815C4448FEF782
:10384000CCFE00204649087012E04148FEF7C9FE50
:1038500000214048017101223C493D48FEF7A9FF83
:1038600000223D493A48FEF7A4FF02203D49088165
:103870003748C069082108420ED13548C069022185
:10388000084209D13248C069C007C00F04D130488E
:10389000C0690904084218D02D48006A082108436D
:1038A0002B4908620846006A022108432849086239
:1038B0000846006A01210843254908620846006A53
:1038C0000121490408432249086210BD10B50121B5
:1038D0002548FEF7F8FB254801880088401C82B285
:1038E000224802800089814201DD012000E00020A1
:1038F0001E498978012901DD012100E000210842EB
:1039000003D001211948417102E00021174841719B
:10391000104801880088401C82B20E48028000894D
:10392000814201DD012000E000200A498978012957
:1039300001DD012100E00021084203D001210548FA
:10394000417102E000210348417110BD05010500ED
:10395000004400407A020020060106000003010036
:103960006B00002020000048002000407001002073
:1039700010B50121C902FE48FFF7E7FB0421FC480E
:10398000FFF7E3FBFF210131F948FFF7DEFB0821D8
:10399000F748FFF7DAFB01218902F548FFF7D5FB6D
:1039A00001214902F248FFF7D0FB1021F048FFF750
:1039B000CCFB0121C9030920C006FFF7C6FB10BDDF
:1039C00000B585B001214804FDF74AFD0120000340
:1039D0000290032168464173022101730021817323
:1039E0000221C17302A90920C006FDF701F90222D4
:1039F0000C210920C006FDF78EF901210846FDF7CC
:103A00003DFD0C210020FDF7F8FD01200003009092
:103A10000021684601711021417101218171FCF77B
:103A2000DBFC072168460174032141740121817484
:103A300004A8FDF79FF905B000BD1CB5012148049D
:103A4000FDF70EFD01218804FDF70AFD0121C804E0
:103A5000FDF706FDC74800900121684641710171DC
:103A6000002181710221C1716946C148FDF7C0F88A
:103A70000120400300906946BF48FDF7B9F8812056
:103A8000400100900121684641710021017181715E
:103A90000221C17169460920C006FDF7A9F81CBDC5
:103AA000B648C06910210843B449C8612F20B44901
:103AB00008810820B24920390880704708B50121E3
:103AC0008804FDF7DBFCAF48AF4908817D20C000CA
:103AD000AD492039C8620846808901210843AA49B6
:103AE000203988810846008801210843A6492039E9
:103AF0000880162168460170032141700121817000
:103B0000FDF738F908BD1CB501214804FDF7A8FCF4
:103B10000121C802FDF7B2FCFF2001300090032113
:103B20006846417102210171002181710121C17139
:103B300069460920C006FDF75BF80222082109202A
:103B4000C006FDF7E8F80020904908808F4820382B
:103B50000088802108438D49203908800846008B61
:103B6000082108438949203908830846008B6021D1
:103B70000843864920390883844800880121084386
:103B800082490880002081492039486380487F4964
:103B900008817D2000017D492039C8627B482030A2
:103BA00080880121C90308437849203188807748FB
:103BB000203800886021084374492039088008466D
:103BC0000088012108437149203908801CBD1CB5BB
:103BD00001218804FDF744FC02200090032168467F
:103BE000417102210171002181710121C171694678
:103BF0005F48FCF7FDFF012211465D48FDF78BF899
:103C000001210220FDF748FC00206249088061483C
:103C100020380088802108435E4920390880084602
:103C2000808BC91408435B49203988830846808B00
:103C300003214903084357492039888355480088A0
:103C400089140843534908800020524920310860F4
:103C5000FF20E1304F492039C862084600886021C2
:103C600008434C4920390880084600880121084350
:103C70004849203908801CBD00B589B0012188045D
:103C8000FDF7EEFB01218803FDF7F8FB802006908D
:103C9000012168464177022101770021C17706A9F9
:103CA0003348FCF7A5FF002207213148FDF733F820
:103CB00040200690012168464177022101770021CA
:103CC000C17706A92A48FCF793FF0022062128485D
:103CD000FDF721F801208003069001216846417715
:103CE0000177002181770221C17706A92248FCF7DC
:103CF0007FFF2948C0680090002001900290039047
:103D000005900C20049069462448FEF722FB01210F
:103D10002248FEF7B1FB1B2108A801700021417069
:103D200001218170FDF726F801221D491B48FEF78D
:103D300040FD09B000BD00B589B001214804FDF780
:103D40008FFB01214804FDF7A7FB08200690012105
:103D500068464177022101770021C17706A9092031
:103D6000C006FCF745FF012203210920C00619E027
:103D70000004004803F00000000800480010024062
:103D8000201000407FBB000020480140202C014053
:103D9000ED02000020040040340000200038014003
:103DA00005010500FCF7B7FF0420069001216846D5
:103DB0004177022101770021C17706A90920C006B9
:103DC000FCF716FF012202210920C006FCF7A3FF21
:103DD0000220069001216846417701770021817712
:103DE0000221C17706A90920C006FCF701FF284877
:103DF000C08E800027490858009000200190029052
:103E0000039005900C20049069462348FEF7A1FA20
:103E100001212148FEF730FB1C2108A80170012177
:103E200041708170FCF7A6FF01221C491A48FEF779
:103E3000C0FC09B000BD1FB501210802FDF72CFB35
:103E40001748FDF71FFC30216846018000210181E1
:103E500041806420019069461148FDF785FC0121ED
:103E60000F48FEF71AF9012211460D48FEF700F936
:103E700001210B48FDF7FDFC132168460173022167
:103E800041730121817303A8FCF774FF1FBD00007B
:103E90008402002034000020004400400501050099
:103EA0000020004010B58CB0044601A8FDF792F93F
:103EB0001249029801F03AFA60430B9002E00B9825
:103EC000401E0B900B980028F9D10CB010BD0028B3
:103ED00000D101200A49C8620021094A5162092122
:103EE000118000BF0649098AC907C90FFAD00449E1
:103EF000098A49084900024A1182704710270000C8
:103F00000010004030B502460020002A1AD0F748C1
:103F100016E01478521CC5B26C40050A2D026019D7
:103F200000230AE0C407E40F04D04408F04D6C40BD
:103F3000204600E040085C1CE3B2082BF2DB491E7F
:103F40000029E6DC30BD427880231A43427081703C
:103F50000523FF2205321354704710B5044620791B
:103F6000002849D1E078012841D12021FF200530E7
:103F700001550120207100206071A0710320E071C3
:103F80000020207204206072DA480078A072D948BC
:103F90004078E072D74880782073D648C078607344
:103FA0000120A0730720E073D34800782074D24822
:103FB00040786074D0488078A074CF48C078E074AE
:103FC000CD48007920750220E07505202076CB4889
:103FD00000786076C9484078A076C8488078E07656
:103FE000C648C0782077C5480079607708E003218B
:103FF0002046FFF7A8FF03E002212046FFF7A3FFBA
:1040000010BD70B50446A0780002E1784518142D63
:1040100004D202212046FFF796FF70BD28461438CF
:10402000030001F064FA1A0E304F7193B5D7F2F124
:10403000F0EFEEEDECEBEAE9E8E7E7E7E7E7E7E6E4
:10404000E5E72079002805D16079282802DC60792D
:104050000A2804DA03212046FFF775FF12E0322D0B
:104060000CD2FF200330015D801C01552079000235
:10407000617940186900A24A505203E002212046AB
:10408000FFF761FFABE22079002802D160791428A4
:1040900004DD03212046FFF756FF12E0322D0CD23B
:1040A000FF200330015D801C0155207900026179F9
:1040B00040186900924A505203E002212046FFF75F
:1040C00042FF8CE22079002805D160795A2802DC71
:1040D0006079142804DA03212046FFF734FF12E048
:1040E000322D0CD2FF200330015D801C0155207958
:1040F0000002617940186900814A505203E00221B0
:104100002046FFF720FF6AE22079002805D1607978
:104110005A2802DC6079142804DA03212046FFF7CC
:1041200012FF12E0322D0CD2FF200330015D801C03
:10413000015520790002617940186900704A505297
:1041400003E002212046FFF7FEFE48E22079002826
:1041500005D160791E2802DC6079052804DA032184
:104160002046FFF7F0FE12E0322D0CD2FF20033084
:10417000015D801C015520790002617940186900B9
:104180005F4A505203E002212046FFF7DCFE26E2A0
:104190002079002805D160791E2802DC6079052885
:1041A00004DA03212046FFF7CEFE12E0322D0CD2B6
:1041B000FF200330015D801C0155207900026179E8
:1041C000401869004E4A505203E002212046FFF792
:1041D000BAFE04E22079002805D160797F2802DC4C
:1041E0006079012812DA03212046FFF7ACFE20E0B7
:1041F000C2E1A2E1DFE181E15BE135E10FE1ECE069
:10420000C9E0A6E083E056E033E013E0322D0CD2A3
:10421000FF200330015D801C015520790002617987
:1042200040186900364A505203E002212046FFF749
:104230008AFED4E12079002802D16079052804DDC6
:1042400003212046FFF77FFE12E0322D0CD2FF2023
:104250000330015D801C015520790002617940180E
:104260006900274A505203E002212046FFF76BFE07
:10427000B5E12079002805D160795A2802DC6079FF
:104280001E2804DA03212046FFF75DFE12E0322DDE
:104290000CD2FF200330015D801C01552079000203
:1042A000617940186900164A505203E00221204605
:1042B000FFF749FE93E12079002802D160791E289A
:1042C00004DD03212046FFF73EFE1FE0322D19D208
:1042D000FF200330015D801C0155207900026179C7
:1042E00040186900064A505210E00000FFFF00002D
:1042F00001A0000024000020280000202D00002044
:104300008402002002212046FFF71DFE67E120798C
:10431000002805D16079322802DC6079142804DA9B
:1043200003212046FFF70FFE12E0322D0CD2FF20B2
:104330000330015D801C015520790002617940182D
:104340006900FA4A505203E002212046FFF7FBFDC4
:1043500045E12079002805D16079322802DC6079B6
:10436000142804DA03212046FFF7EDFD12E0322D78
:104370000CD2FF200330015D801C01552079000222
:10438000617940186900E94A505203E00221204651
:10439000FFF7D9FD23E12079002805D16079322883
:1043A00002DC60790F2804DA03212046FFF7CBFDF9
:1043B00012E0322D0CD2FF200330015D801C01552C
:1043C00020790002617940186900D84A505203E010
:1043D00002212046FFF7B7FD01E12079002805D131
:1043E0006079322802DC60790F2804DA0321204644
:1043F000FFF7A9FD12E0322D0CD2FF200330015D42
:10440000801C015520790002617940186900C74A73
:10441000505203E002212046FFF795FDDFE02079AE
:1044200030430002617908430646FF202D30864262
:1044300001D8002E04D103212046FFF784FD12E0AD
:10444000322D0CD2FF200330015D801C01552079F4
:104450000002617940186900B44A505203E0022119
:104460002046FFF770FDBAE0207930430002617901
:1044700008430646FF202D30864201D8002E04D185
:1044800003212046FFF75FFD12E0322D0CD2FF2002
:104490000330015D801C01552079000261794018CC
:1044A0006900A24A505203E002212046FFF74BFD6B
:1044B00095E0207930430002617908430646FF20E9
:1044C0002D30864201D8002E04D103212046FFF76B
:1044D0003AFD12E0322D0CD2FF200330015D801C2A
:1044E0000155207900026179401869008F4A5052C5
:1044F00003E002212046FFF726FD70E02079002826
:1045000002D16079322804DD03212046FFF71BFD2C
:1045100012E0322D0CD2FF200330015D801C0155CA
:1045200020790002617940186900804A505203E006
:1045300002212046FFF707FD51E02079002802D133
:104540006079642804DD03212046FFF7FCFC12E0BB
:10455000322D0CD2FF200330015D801C01552079E3
:104560000002617940186900704A505203E002214C
:104570002046FFF7E8FC32E02079002802D160797C
:10458000642804DD03212046FFF7DDFC12E0322D14
:104590000CD2FF200330015D801C01552079000200
:1045A000617940186900614A505203E002212046B7
:1045B000FFF7C9FC13E0322D0CD2FF200330015D60
:1045C000801C015520790002617940186900574A22
:1045D000505203E002212046FFF7B5FC00BF00BFA8
:1045E00000BF1AE570B50446A0780002E1784518CE
:1045F0002079000261794618002E03D0FF200002C6
:1046000086422AD1102D23D2FF200330015D801C69
:104610000155002E0DD1E90844486430415C6A0719
:10462000520F012090408143EA0840486430815491
:1046300017E0E9083D486430405C6A07520F0121E9
:1046400091400843C1B2EA0838486430815408E018
:1046500002212046FFF777FC03E003212046FFF705
:1046600072FC70BDFEB5044600260027A07800024B
:10467000E178401802902079000261794018019099
:104680000327019902984018322801D2012000E046
:10469000002001997E2901D2012100E00021084279
:1046A00026D0002617E00298301840001F490D5A06
:1046B000002D09DA0095009D281280210843E0555D
:1046C000781C009D255404E02804000EE055781C59
:1046D0002554BF1C761C01988642E4D37006000E58
:1046E000A0707000401DC1B2FF200530015503E0ED
:1046F00002212046FFF727FCFEBD30B50446207896
:10470000002801D0012000E00020FF210331095DD5
:10471000052901DD012100E0002108402178044A3B
:104720005278914206D1012105E000008402002068
:104730005600002000212278FF2A01D1012200E04A
:104740000022114308425FD0FF200330005D811E2C
:104750002046FFF7D7FB0546FF200330005D801E93
:10476000205CE9B2884201D1012000E00020FF2155
:104770000331095D491E615C2A0A914201D1012180
:1047800000E0002108423FD06078052812D004DC08
:10479000032807D0042819D108E006280ED02B28BA
:1047A00014D10FE02046FFF75DFF14E02046FFF72D
:1047B00059FF10E02046FFF715FF0CE02046FFF7F9
:1047C00020FC08E02046FFF7C8FB04E0012120465A
:1047D000FFF7B9FB00BF00BFFF200530005D811E61
:1047E0002046FFF78FFB0546FF200530005D801E49
:1047F00025542804010EFF200530005D401E215481
:104800000021FF20043001550021FF200630015512
:10481000C01E0155491E801E015330BD30B50446EF
:104820002078002801D0012000E00020FF21033182
:10483000095D052901DD012100E000210840217802
:104840003C4A9278914201D1012100E00021227876
:10485000FF2A01D1012200E00022114308425FD06B
:10486000FF200330005D811E2046FFF74BFB05460D
:10487000FF200330005D801E205CE9B2884201D138
:10488000012000E00020FF210331095D491E615C29
:104890002A0A914201D1012100E0002108423FD0C3
:1048A0006078052812D004DC032807D0042819D129
:1048B00008E006280ED02B2814D10FE02046FFF781
:1048C000D1FE14E02046FFF7CDFE10E02046FFF7B2
:1048D00089FE0CE02046FFF794FB08E02046FFF736
:1048E0003CFB04E001212046FFF72DFB00BF00BF89
:1048F000FF200530005D811E2046FFF703FB0546C3
:10490000FF200530005D801E25542804010EFF2085
:104910000530005D401E21540021FF200430015568
:104920000021FF2006300155C01E0155491E801E82
:10493000015330BD5600002010B5FE48007806280F
:104940001FDDFD48006840084000FB49086008463C
:10495000006801210843F84908600846006A0821F8
:104960000843F54908620846006A02210843F249F3
:1049700008620846FDF786FCFFF77EF90020ED4946
:104980000870EE48007806281FDDED4800684008F2
:104990004000EB4908600846006801210843E849E7
:1049A00008600846006A08210843E549086208468D
:1049B000006A02210843E24908620846FDF762FCEA
:1049C000FFF7B9F90020DD490870DE4800780028BB
:1049D0000CD0DD48008801210843DB4908800846E7
:1049E000408840218843D84948800BE0D648008859
:1049F00040084000D44908800846408840210843C8
:104A0000D1494880D04800794006400ECE49C98D32
:104A1000C9B2884216DBCC488088FF2101310842A8
:104A200010D1C9488088490008420BD1C648808807
:104A30008021084206D1C448408801210843C24968
:104A400048801FE0C0488078C007C00F09D0BE482A
:104A500000794106490EBC48C08DC0B2801E81421B
:104A60000ADDB9488088FF210131084204D1B648E7
:104A700080884900084205D0B3484088400840007B
:104A8000B1494880B04800794006400EAE49498E91
:104A900088420ADCAC488088FF210131084204D1F9
:104AA000A94880884900084204D0A748808880210E
:104AB000084206D0A448408802210843A249488001
:104AC0001FE0A14840880221084209D09E48007991
:104AD0004106490E9C48408EC0B2801C81420ADAD1
:104AE00099488088FF21013108420AD09648808881
:104AF0004900084205D094484088022188439249E1
:104B000048809148007A4006400E8F49098FC9B20B
:104B1000884211DB8C480089FF21013108420BD10A
:104B2000894800894900084206D187484088042105
:104B300008438549488022E0834840880421084290
:104B40000CD08148008FC0B27F49498FC9B2401A4A
:104B50007D49097A4906490E88420ADA7A4800896D
:104B6000FF21013108420AD07748008949000842F4
:104B700005D07548408804218843734948807348AC
:104B80000088E121C900884206DB6F48408808217F
:104B900008436D49488005E06B48408808218843F8
:104BA000694948806848807A4006400E5A2811DBDF
:104BB00065484089FF21013108420BD16248408994
:104BC0004900084206D160484088102108435E49E8
:104BD00048801BE05C4840881021084205D05A48B4
:104BE000807A4006400E58280ADD57484089FF2148
:104BF000013108420AD0544840894900084205D092
:104C000051484088102188434F49488010BD4E4884
:104C100040881021084210D008024D4908814A48B6
:104C2000008802218843484908804A4800680121D9
:104C3000090688434749086048E043484089802185
:104C4000084239D14048807A4006400E052833DBBF
:104C50003D48C08908422FD13B4840880421084282
:104C60002AD1394840884021084225D13648008958
:104C70008900084220D134480089490008421BD1EC
:104C8000314840894910084216D12F4840894900CF
:104C9000084211D12C488088491008420CD12A487A
:104CA00080884900084207D12A480068C903884320
:104CB00040182849086009E02648006801210906D3
:104CC00088432449086000208870088021480068D3
:104CD000C001C00F79D01F488078002804D0012877
:104CE0004DD0022872D17EE01A480088B42808DB33
:104CF000154800794006400E1349098DC9B2884213
:104D000008DA114800794006400E0F49898DC9B272
:104D1000884229DB0C4880888021084224D1480140
:104D20000B49203988610848008802210843064958
:104D3000088011E06A000020003801406B0000206C
:104D4000004400406800002084020020620000202F
:104D5000200400486C0000200020FE49088001204B
:104D60008870FD49087009E0FC48008802218843EA
:104D7000FA49088001200003F949088169E0F548F3
:104D80000088B42808DBF548008DF449498D401AA5
:104D9000F249898888420ADAF0488088EF49098E0A
:104DA000884204DDED488088802108420FD0012030
:104DB0000003EB490881E948008802218843E7495C
:104DC00008800220E34988700CE043E040E0E348BB
:104DD000008802210843E149088001200003E049DE
:104DE0002039886135E0DB480088FF21A531884201
:104DF00005DBDA488088D949098D884208DAD74826
:104E000000794006400ED549898DC9B2884214DB2D
:104E1000D2488088802108420FD14801D0492039EA
:104E20008861CE48008802210843CC4908800020D0
:104E3000C84908800120887009E0C848008802211C
:104E40008843C649088001200003C549088100E065
:104E500000BF09E001200003C1490881BF48008864
:104E600002218843BD4908807047BC4880794006CC
:104E7000400E022804DDB948C0888021084215D0C0
:104E8000B648C088FF21013108420FD1B348C0881D
:104E9000490008420AD14801B14920398861AF4828
:104EA000008808210843AD49088029E0AB48008804
:104EB000082108420FD0A94880794006400E0328F7
:104EC00009DDC802A6490881A44800880821884352
:104ED000A249088014E0A148C088FF21013108429E
:104EE00004D19E48C0884900084209D001208003AF
:104EF0009B49088199480088082188439749088080
:104F00009648807A4006400E082804DD9348408980
:104F10008021084215D091484089FF210131084283
:104F20000FD18E484089490008420AD188018C4936
:104F3000203988618948008804210843874908800E
:104F400029E086480088042108420FD08348807AEF
:104F50004006400E092809DD4803814908817F4841
:104F60000088042188437D49088014E07B484089FB
:104F7000FF210131084204D17848408949000842A4
:104F800009D00120C00376490881744800880421B3
:104F9000884372490880704710B570480088022124
:104FA00008426FD06F4800881E286BDA6B48007A81
:104FB0004006400E6949C98F884263DA6748C08855
:104FC0008021084219D1654880794006400E0F289B
:104FD00013DA6248C088490008420ED15F48C08891
:104FE0004900084209D16049C86A642100F09EF96D
:104FF0001E2148435C49486343E15848C0888021EA
:1050000008421FD1554880794006400E0F2819DB11
:10501000524880794006400E142813DA4F48C08861
:10502000490008420ED14D48C0884900084209D1C4
:105030004D49C86A642100F079F9322148434A4950
:1050400048631EE14548C08880210842D4D14348C6
:1050500080794006400E1428CEDB4048C0884900C5
:105060000842C9D13D48C08849000842C4D13E49E0
:10507000C86A642100F05AF9642148433A494863F8
:10508000FFE0FFE73548007A4006400E3349C98FFC
:10509000C9B2884225DB314800898021084220D1ED
:1050A0002E480089490008421BD12C48008949003C
:1050B000084216D12C49C96A1E2251430846642170
:1050C00000F034F92849C96A0C1A24484030C188D4
:1050D000204600F02BF9254908800020244908804B
:1050E000CFE01E48007A4006400E1C49898FC9B2A5
:1050F000884244DB19480089802108423FD1174883
:105100000089490008423AD1144800894900084200
:1051100035D11548406B002809D11349C96A1E22B0
:1051200051430846642100F001F90F4948630E49D4
:10513000C96A1E2251430846642100F0F7F80A4963
:10514000C96A0C1A054840308188204600F0EEF804
:1051500006490FE06C00002060000020840200205F
:10516000200400485A000020002C01405C00002070
:105170005E000020088000206649088081E06648C3
:10518000007A4006400E6449898FC9B288421DDA10
:105190006148007A4106490E5F48403000788142FC
:1051A00014DB5D480089802108420FD15A480089EC
:1051B000490008420AD1584800894900084205D1EF
:1051C000002056490880534908805AE05248007A26
:1051D0004106490E504840300078814232DA4E484C
:1051E000007A4106490E4C4840308078814229DDE2
:1051F0004B48406B002825D0474800898021084251
:1052000020D145480089490008421BD14248008905
:105210004900084216D10020404908804049C96A27
:105220001E2251430846642100F080F83C49C96AB7
:105230000C1A394840300189204600F077F835498A
:1052400008801EE03448007A4106490E324840305A
:105250008078814215DC304800898021084210D1D5
:105260002D480089490008420BD12B48008949008C
:10527000084206D10020294908802649088028498B
:10528000486325480089FF210131084204D12248A2
:1052900000894900084203D02148C06A2049486378
:1052A0001D4800880221084202D100201D490880C3
:1052B0001B48406B002806D017480088802108430F
:1052C0001549088005E01448008880218843124968
:1052D000088010BD10B51449C96A642251430846BC
:1052E000114600F023F880B20F49403108600846AB
:1052F0000068002806D00848008840210843064975
:10530000088005E00448008840218843024908805D
:1053100010BD00005E000020840200205C00002020
:10532000002C01405A000020000400400022030924
:105330008B422CD3030A8B4211D300239C464EE0B0
:1053400003460B433CD4002243088B4231D303096C
:105350008B421CD3030A8B4201D394463FE0C3091E
:105360008B4201D3CB01C01A524183098B4201D336
:105370008B01C01A524143098B4201D34B01C01A21
:10538000524103098B4201D30B01C01A5241C30899
:105390008B4201D3CB00C01A524183088B4201D308
:1053A0008B00C01A524143088B4201D34B00C01AF4
:1053B0005241411A00D201465241104670475DE009
:1053C000CA0F00D04942031000D34042534000228C
:1053D0009C4603098B422DD3030A8B4212D3FC2235
:1053E000890112BA030A8B420CD3890192118B42B4
:1053F00008D3890192118B4204D389013AD09211CA
:1054000000E08909C3098B4201D3CB01C01A524184
:1054100083098B4201D38B01C01A524143098B424D
:1054200001D34B01C01A524103098B4201D30B0136
:10543000C01A5241C3088B4201D3CB00C01A52415B
:1054400083088B4201D38B00C01A5241D9D2430842
:105450008B4201D34B00C01A5241411A00D201467F
:10546000634652415B10104601D34042002B00D5E9
:105470004942704763465B1000D3404201B50020AB
:10548000C046C04602BD704770477047754600F081
:1054900023F8AE46050069465346C008C00085465D
:1054A00018B020B5FAF774FE60BC00274908B6466C
:1054B0000026C0C5C0C5C0C5C0C5C0C5C0C5C0C523
:1054C000C0C5403D49008D4670470446C046C046B1
:1054D0002046FAF73CFE00000048704758030020C1
:1054E00001491820ABBEFEE726000200704730B429
:1054F0007446641E2578641CAB4204D3635D5B0074
:10550000E31830BC18471D46F8E7005EBCE2613F77
:10551000DD83C29C7E20A3FD1F419DC3217FFCA291
:10552000401E5F01E3BD3E6082DC237D9FC1421CC3
:10553000FEA0E1BF5D0380DE3C62BEE0025CDF8175
:10554000633D7C22C09E1D43A1FF4618FAA4277923
:105550009BC584DA3866E5BB5907DB856739BAE451
:1055600006581947A5FB7826C49A653BD987045A83
:10557000B8E6A7F91B45C6987A24F8A6441A99C735
:10558000257B3A6486D85B05E7B98CD2306EEDB3E3
:10559000510F4E10F2AC2F7193CD114FADF3702E11
:1055A000CC92D38D6F31B2EC0E50AFF1134DCE9043
:1055B000722C6D33D18F0C52B0EE326C8ED0530DF5
:1055C000EFB1F0AE4C1291CF2D73CA947628ABF5A3
:1055D00017490856B4EA6937D58B5709EBB53668D1
:1055E0008AD495CB2977F4AA4816E9B7550B88D603
:1055F000346A2B7597C94A14F6A8742AC896154BB5
:10560000A9F7B6E80A54D7896B3500002C56000874
:105610000000002070000000F80000089C56000800
:10562000700000204809000014010008006CDC0232
:105630000000000000000000010203040607080942
:105640000000000001020304010203040607080928
:105650005445434F534D2D494F312E302E310000CC
:1056600060090000C0120000201C0000802500001E
:1056700040380000004B0000000000000000000067
:10568000000000000000000000000000000000001A
:0C5690000000000000000000000000000E
:04000005080000B53A
:00000001FF
