:020000040800F2
:10000000500800205D0100085D3100085F310008E4
:1000100000000000000000000000000000000000E0
:100020000000000000000000000000006331000834
:100030000000000000000000653100086731000882
:100040008D010008000000008D0100088D010008EE
:100050008D0100088D0100088D0100088D01000848
:10006000000000008D0100088D0100088D010008CE
:100070008D0100088D0100088D01000800000000BE
:100080008D0100080000000000000000FD350008A0
:100090008D0100088D010008693100088D010008FC
:1000A0008D0100088D0100088D010008CB34000887
:1000B0008D01000800F002F800F040F80CA030C8F4
:1000C000083824182D18A246671EAB4654465D46D4
:1000D000AC4201D100F032F87E460F3E0FCCB6465E
:1000E0000126334200D0FB1AA246AB4633431847E1
:1000F0006C4100008C410000103A02D378C878C1EE
:10010000FAD8520701D330C830C101D504680C6059
:10011000704700000023002400250026103A01D378
:1001200078C1FBD8520700D330C100D50B607047AF
:100130001FB5C046C0461FBD10B510BD03F0CFFFB0
:100140001146FFF7F5FF02F0EAFB03F0E7FF03B407
:10015000FFF7F2FF03BC03F0EBFF00000F4880F352
:1001600008880F480168090E0E4A914205D10E48D1
:100170000E4901600E480F4901600F4880470F4843
:100180000047FEE7FEE7FEE7FEE7FEE7FEE70000CA
:100190000B480C490C4A0D4B7047000050080020DA
:1001A000040000001F0000001810024001000000C1
:1001B00000000140000000009B020008B50000089C
:1001C000500200205008002050040020500400205D
:1001D0000CB50020019000907248006801210904CC
:1001E00008437049086000BF6E4800680121490457
:1001F000084000900198401C01900098002804D10C
:100200000521090301988842EED166480068012162
:100210004904084202D00120009001E00020009033
:100220000098012838D111205F4908605D48406876
:100230005C494860084640684860084640687F213D
:10024000C90388435749486008464068112109049A
:1002500008435449486008460068012109060843DC
:100260005049086000BF4F48006801214906084214
:10027000F9D04C484068800880004A4948600846E8
:100280004068022108434749486000BF454840682C
:100290000C2108400828F9D10CBD10B54148006870
:1002A000012108433F490860084640683F4908402B
:1002B0003C494860084600683D49084039490860A3
:1002C00008460068012189048843364908600846C9
:1002D00040683F2109048843324948600846C06AA3
:1002E00000090001C8620846006BFF2154318843B1
:1002F0002C4908630846406B4008400048630020D2
:100300008860FFF765FF10BDF8B5002500240026C2
:100310000027244840680C2108400546002D04D0E1
:10032000042D06D0082D2AD107E022482249086072
:1003300029E020482049086025E01A4840680F213C
:10034000890408400446174840680321C90308404F
:100350000646A00C841C002E04D1184860431649A0
:1003600008600BE00F48C06A0007000F471C3946C1
:10037000104803F004FE60430F49086003E00D4895
:100380000D49086000BF00BF06484068F0210840E2
:1003900000090B490D5C08480068E8400649086000
:1003A000F8BD000000100240002002400CB8FFF829
:1003B000FFFFF6FE00127A000000002000093D0059
:1003C0000400002039483A490860002048608860ED
:1003D000C860384848617047002135498279002A51
:1003E00035D00A46126803689A430B461A600A46DB
:1003F000526803689A430B465A60027951180A689A
:1004000003681A430A602A4A926803689A43284B91
:100410009A601A46D26803689A43254BDA6042799B
:10042000102A0CD11A46926803681A43204B9A602E
:100430001A46D26803681A431D4BDA600DE01C4966
:10044000427951180A6803681A430A6005E0027984
:1004500051180A6803689A430A60704700210160D6
:1004600001710C21417100218171704710490969A6
:1004700001430F4A11617047014600200C4A52693E
:100480000A4201D0012000E000207047084948617D
:10049000704701460020064A52690A4201D00120F5
:1004A00000E0002070470249486170470000940F47
:1004B00000040140FFFF6B0001460020FB4A10686A
:1004C0004008400002460A431046F84A1060704750
:1004D000002806D0F549096810221143F34A11603B
:1004E00005E0F249096810229143F04A1160704713
:1004F0000020EE4909682022114201D0012000E0CD
:1005000000207047E94800698021084204D0E8488B
:10051000E6494860E74848607047E4480069802140
:100520000843E249086170470420E049C968C907E7
:10053000C90F01D001200EE0DC49C9681022114228
:1005400001D0022007E0D949C9680422114201D034
:10055000032000E00420704710B503460424FFF791
:10056000E3FF044603E0FFF7DFFF04465B1E012CB8
:1005700001D1002BF7D1002B00D10524204610BD5E
:1005800030B5044604250B200004FFF7E5FF0546BF
:10059000042D17D1C548006902210843C3490861E9
:1005A00008464461006940210843C04908610B20A6
:1005B0000004FFF7D1FF0546BC48006902218843CB
:1005C000BA490861284630BD10B504240B20000448
:1005D000FFF7C2FF0446042C16D1B4480069042179
:1005E0000843B24908610846006940210843AF4901
:1005F00008610B200004FFF7AFFF0446AB48006919
:1006000004218843A9490861204610BD78B50646F3
:100610000C460425002000900B200004FFF79CFFEF
:100620000546042D24D1A1480069012108439F49B2
:10063000086134800B200004FFF78EFF0546042D6F
:1006400010D1B01C0090200C009908800B200004F1
:10065000FFF782FF0546954800694008400093492E
:10066000086105E091480069400840008F49086131
:10067000284678BD70B504460D4604260B200004BC
:10068000FFF76AFF0646042E11D188480069012150
:1006900008438649086125800B200004FFF75CFFB2
:1006A000064682480069400840008049086130469B
:1006B00070BD7E48006901214902084204D17C488E
:1006C0007A4988607B4888607047784800690121D2
:1006D00049028843754908617047744800690121DF
:1006E0004903084371490861704700206F49C9698F
:1006F0000622114201D0012000E00020704730B5F1
:10070000AA250424FFF7F1FF002800D000250B20C4
:100710000004FFF721FF0446042C36D1634800692A
:1007200020210843614908610846006940210843C7
:100730005E4908610B200004FFF70EFF0446042CFD
:100740001BD15A480069202188435849086108464E
:1007500000691021084355490861574805800B205E
:100760000004FFF7F9FE0446052C0ED04F4800693F
:10077000102188434D49086107E0052C05D04B48FE
:1007800000691021884349490861204630BDFCB505
:1007900004464A4E37463046019000900425E44313
:1007A000E6B22004070E2002000E0190200E0090F9
:1007B0000B200004FFF7D0FE0546042D3BD13B483B
:1007C00000691021084339490861FF2E06D03A48D4
:1007D00006810B200004FFF7BFFE0546042D08D15B
:1007E000FF2F06D0344847810B200004FFF7B4FEEA
:1007F0000546042D0AD10198FF2807D02E490198FB
:1008000088810B200004FFF7A7FE0546042D0AD1BE
:100810000098FF2807D028490098C8810B200004C1
:10082000FFF79AFE0546052D05D0204800691021E6
:1008300088431E4908612846FCBD30B5054604249E
:100840000B200004FFF788FE0446042C40D1174813
:1008500000692021084315490861084600694021C4
:100860000843124908610B200004FFF775FE044697
:10087000042C25D10D480069202188430B490861CB
:100880000846006910210843084908610A480580A4
:100890000B200004FFF760FE0446052C18D0034827
:1008A0000069102188430149086111E000200240DD
:1008B00023016745AB89EFCD00F8FF1FFFFF000064
:1008C000052C05D0A1480069202188439F49086173
:1008D000204630BDF0B505460E46174604240B20D1
:1008E0000004FFF739FE0446042C19D1974800692B
:1008F000102108439549086128463043F8213943BF
:100900000843934948800B200004FFF725FE044666
:10091000052C05D08D480069102188438B4908615A
:100920002046F0BD30B5054604240B200004FFF737
:1009300013FE0446042C16D1844800691021084394
:1009400082490861EF202843814948800B20000438
:10095000FFF702FE0446052C05D07C4800691021F3
:1009600088437A490861204630BD30B505460424E5
:100970000B200004FFF7F0FD0446042C16D1734849
:1009800000691021084371490861F7202843704924
:1009900048800B200004FFF7DFFD0446052C05D03E
:1009A0006A4800691021884368490861204630BDC3
:1009B00030B5054604240B200004FFF7CDFD0446A6
:1009C000042C16D161480069102108435F49086171
:1009D0007F2028435E4948800B200004FFF7BCFDC0
:1009E0000446052C05D05948006910218843574911
:1009F0000861204630BD30B5054604240B200004B4
:100A0000FFF7AAFD0446042C16D1504800691021B6
:100A100008434E490861DF2028434D4948800B2098
:100A20000004FFF799FD0446052C05D047480069EE
:100A30001021884345490861204630BD30B5054640
:100A400004240B200004FFF787FD0446042C16D174
:100A50003E480069102108433C490861BF202843F3
:100A60003B4948800B200004FFF776FD0446052C27
:100A700005D0364800691021884334490861204672
:100A800030BD30B5054604240B200004FFF764FD9B
:100A90000446042C14D12D480069102108432B4929
:100AA00008612B4845800B200004FFF755FD0446E4
:100AB000052C05D025480069102188432349086189
:100AC000204630BD70B505460E4604240B200004B8
:100AD000FFF742FD0446042C13D11C480069102185
:100AE00008431A4908612E800B200004FFF734FDEB
:100AF0000446052C05D01548006910218843134988
:100B00000861204670BD1148C0690004000E70479E
:100B10000E48006A7047002905D00C4A126902434A
:100B20000A4B1A6104E0094A12698243074B1A61B1
:100B3000704701460020054AD2680A4201D00120D0
:100B400000E0002070470149C86070470020024063
:100B500000F8FF1F10B504460920C006844209D1E1
:100B60000121480400F04CFC00210120400400F069
:100B700047FC3CE07948844208D10121000200F0A2
:100B80003FFC0021200200F03BFC30E0744884422E
:100B900008D10121000200F033FC0021200200F006
:100BA0002FFC24E06F48844209D10121080500F0A0
:100BB00027FC00210120000500F022FC17E06A4814
:100BC000844208D10121400200F01AFC0021600299
:100BD00000F016FC0BE06548844208D1012188052D
:100BE00000F00EFC00210120800500F009FC10BD82
:100BF000F0B50A4600210023002400BF3DE0012596
:100C00008D402B4615681D402C469C4234D11579E9
:100C1000012D02D01579022D16D185684F000326CB
:100C2000BE40B543856055794E00B5408668354372
:100C30008560858801268E40B543858085889679B4
:100C40008E40B6B23543858005684F000326BE400E
:100C5000B543056015794E00B5400668354305601B
:100C6000C5684F000326BE40B543C560D5794E0028
:100C7000B540C6683543C560491C1029BFD3F0BDD7
:100C80003B49016000210171012141710021817105
:100C9000C171704708B5012212040092009A0A43FC
:100CA0000092009AC261C161009AC261C269009259
:100CB000C269009208BD02460020138A0B4201D08F
:100CC000012000E0002070470146088A7047024674
:100CD0000020938A0B4201D0012000E000207047E1
:100CE0000146888A704782690A4382617047028D93
:100CF0000A4302857047828A4A4082827047002AEE
:100D000003D083690B43836102E0038D0B430385AA
:100D1000704781827047F0B5002300244D07EE0E26
:100D20001546B5402B46CD10AE0005462035AD59D1
:100D30004E07F70E0F26BE40B543CE10B60007464D
:100D40002037BD51CD10AE003D46AD591D432C4658
:100D5000CD10AD003E467451F0BD000000040048C7
:100D600000080048000C004800100048001400482B
:100D7000FFFF0000F748006801210843F5490860BB
:100D800008464068F4490840F2494860084600684F
:100D9000F2490840EF4908600846006801218904CB
:100DA0008843EC490860084640683F2109048843AD
:100DB000E84948600846C06A00090001C862084660
:100DC000006BE7490840E34908630846406B400868
:100DD000400048630020886070470021DD4A917020
:100DE00011468870704710B502460021002300208C
:100DF0005111002902D1D74C23680BE0012902D1FF
:100E0000D44C236A06E0022902D1D24C636A01E085
:100E1000D04C636BD106C90E01248C401C4201D01A
:100E2000012000E0002010BD38B500200090002413
:100E3000002500BF1120FFF7D6FF05460098401C93
:100E40000090052109030098884201D0002DF1D0BF
:100E50001120FFF7C8FF002801D0012400E0002482
:100E6000204638BD01460020BA4A1068F8230246E1
:100E70009A431046CA001043B64A106070470028D3
:100E800006D0B449096801221143B24A116005E055
:100E9000B049096849084900AE4A116070470146E7
:100EA0000020AC4A506BF82302469A431046CA0011
:100EB0001043A84A50637047002806D0A549496BE3
:100EC00001221143A34A516305E0A249496B490835
:100ED0004900A04A51637047002806D09D49496BDC
:100EE000042291439B4A516305E09A49496B0422CD
:100EF0001143984A516370479649096A4908490065
:100F0000944A11621146096A04229143914A11627E
:100F10001146096A0143116270478E49096A182215
:100F200091438C4A11621146096A0143116270476C
:100F3000002806D08749496A01221143854A516237
:100F400005E08449496A49084900824A516270476C
:100F5000804A52687B23DB039A437E4B5A601A46D1
:100F6000526803460B431A437A4B5A607047002875
:100F700007D078490968012212061143754A1160A9
:100F800006E074490968012212069143714A116012
:100F90007047002807D06F49496B012212041143A2
:100FA0006C4A516306E06B49496B0122120491437C
:100FB000684A5163704701460020664AD06A0009BA
:100FC000000102460A431046624AD0627047002878
:100FD00007D0604909680122D20411435D4A1160BB
:100FE00006E05C4909680122D2049143594A116024
:100FF000704702460020574B58680002000A13064B
:101000000B431843534B5860704701460020514A28
:1010100050688008800002460A4310464D4A5060DE
:1010200070474C4840680C2108407047014600203A
:10103000484A5068F02302469A43104602460A4343
:101040001046444A5060704701460020414A5068AB
:1010500007231B0202469A43104602460A431046E3
:101060003C4A506070473B494968012292039143D2
:10107000384A51601146496882B21143354A51607D
:101080001146096B92159143324A11631146096B5F
:10109000020C11432F4A116370472E49096B4022FD
:1010A00091432C4A11631146096B01431163704748
:1010B0002849096B10229143264A11631146096B96
:1010C0000143116370470021010F012906D1214A14
:1010D000126B920892001F4B1A6310E0022907D18D
:1010E0001C4A126B03231B049A431A4B1A6306E033
:1010F000184A126B03239B049A43164B1A63154A32
:10110000126B0243134B1A6370471249096B80221A
:101110009143104A11631146096B014311637047F3
:10112000FEB50446002500260020029001900090A4
:101130000027084840680C2108400546002D06D0CD
:10114000042D11D0082D12D00C2D36D132E00548D7
:10115000206035E0001002400CB8FF08FFFFF6FEEB
:10116000ACFEF0FF00127A00CC48206028E0CC48AA
:1011700040680F21890408400646C9484068032199
:10118000C90308400290B00C861C0298002803D1C5
:10119000C448374647430BE0C148C06A0007000F08
:1011A000401C0190BD48019902F0E9FE70430746DA
:1011B000276005E0BC48206002E0B848206000BF1E
:1011C00000BFB7484068F021084005462D09B748E0
:1011D000405D009020680099C8406060B048406859
:1011E00007210902084005462D0AB048405D0090DD
:1011F00061680098C140A160A948006BFF210131DE
:101200000840884202D0AA48E0600DE0A448406847
:10121000012189030840884203D0A0684008E060AB
:1012200002E0A0688008E0609D48006B4021084013
:10123000402802D09F48206102E00120C0032061C5
:101240009748006B10210840102802D09348606135
:1012500001E0206860619248006B8007800F02D136
:10126000A068A06119E08E48006B8007800F0128FC
:1012700002D12068A06110E08948006B8007800FD0
:10128000022802D18003A06107E08548006B800737
:10129000800F032801D18148A0618148006B0321A0
:1012A0000904084202D1A068E06120E07C48006B9C
:1012B00003210904084001210904884202D1206861
:1012C000E06114E07648006B032109040840012125
:1012D0004904884202D18010E06108E07048006B48
:1012E000032109040840884201D16C48E0616C4840
:1012F000006B03218904084202D1A068206220E02B
:101300006748006B03218904084001218904884251
:1013100002D12068206214E06148006B0321890437
:1013200008400121C904884202D10011206208E06E
:101330005B48006B032189040840884201D157486B
:1013400020625748006B80210840802802D0564810
:10135000606200E06762FEBD5149096A0143504A7C
:1013600011627047002807D04D49096A0122D20353
:1013700011434B4A116206E04949096A0122D2032E
:101380009143474A11627047002807D04449096ACF
:10139000012212041143424A116206E04049096ADF
:1013A0000122120491433E4A11627047002905D080
:1013B0003B4A526902433A4B5A6104E0384A526947
:1013C0008243374B5A617047002905D0344A9269ED
:1013D0000243334B9A6104E0314A92698243304BB5
:1013E0009A617047002905D02D4AD26902432C4BDF
:1013F000DA6104E02A4AD2698243294BDA617047F4
:10140000002905D0264A926A0243254B9A6204E0DD
:10141000234A926A8243224B9A627047002905D080
:101420001F4AD26802431E4BDA6004E01C4AD268AD
:1014300082431B4BDA607047002905D0184A1269B5
:101440000243174B1A6104E0154A12698243144B98
:101450001A617047002905D0114A527A0243104B95
:101460005A7204E00E4A527A82430D4B5A72704708
:101470000B48406A01210906084309494862704740
:1014800001460020064A92680A4201D0012000E08D
:1014900000207047024988727047000000127A00ED
:1014A0000010024000093D00006CDC021400002026
:1014B000809FD50012800000444800688007800F9C
:1014C000424908600020886000214048C1600161F5
:1014D00041618069FF21013108433C4988617047BF
:1014E00001460020394A10688008800002460A43FD
:1014F0001046364A10607047002905D0334A1268FA
:101500000243324B1A6004E0304A126882432F4B88
:101510001A607047002905D02C4A126802432B4BF1
:101520001A6004E0294A12688243284B1A60704707
:1015300026490968C0229143244A1160114609686E
:1015400001431160704730B500228B071C0F0F2339
:10155000A3401A461D4B08338C10A4001B5993431B
:101560001A4C08348D10AD00635123468C10A40032
:101570001B598C07250F0446AC402343134C0834F9
:101580008D10AD00635130BD0146104880300A0E09
:10159000920080580A02120A104070470B4989696C
:1015A00001430A4A9161704701460020074A926947
:1015B000FF2301331A4201D0012000E000207047D0
:1015C000024989690143014A916170470000014065
:1015D00010B50446F748844208D10121C014FFF732
:1015E0001DFF0021E014FFF719FF62E001208007D2
:1015F000844208D101210846FFF71EFF0021012087
:10160000FFF71AFF55E0EC48844208D1012102207F
:10161000FFF712FF00210220FFF70EFF49E0E74825
:10162000844208D101211020FFF706FF002110207D
:10163000FFF702FF3DE0E248844208D1012120206B
:10164000FFF7FAFE00212020FFF7F6FE31E0DD482B
:10165000844208D101218015FFF7EEFE0021A0157C
:10166000FFF7EAFE25E0D848844209D101210804A9
:10167000FFF7D4FE002101200004FFF7CFFE18E0A1
:10168000D248844209D101214804FFF7C7FE002156
:1016900001204004FFF7C2FE0BE0CD48844208D190
:1016A00001218804FFF7BAFE002101208004FFF722
:1016B000B5FE10BD00220288BE4B984206D0012321
:1016C0009B07984202D0BC4B984203D1C14B1A40B1
:1016D0004B881A43B94B984203D0BF4B1A400B8931
:1016E0001A4302804B68C3620B880385B14B984252
:1016F00008D0B54B984205D0B44B984202D0B44BB9
:10170000984201D18B7A038601238382704700219E
:10171000C94341600021018001814180817270478D
:101720000185828270470A4600210188A94B194031
:101730000B46134319460180704741627047C162EE
:1017400070470146486A70470146088D7047002976
:1017500004D0028802231A43028004E002889D4BD1
:101760006E331A4002807047002904D00288042397
:101770001A43028004E00288964B6C331A400280C0
:101780007047002904D0028880231A43028004E0B5
:101790000288904B103B1A400280704702888D4BA4
:1017A00068331A40028002880A4302807047028828
:1017B000894B1A40028002880A4302807047002940
:1017C00004D0028801231A43028004E00288814B7E
:1017D0006F331A40028070470A884B881A438B88FF
:1017E0001A43CB881A430B891A434B891A438B89B6
:1017F0001A4344231A52704700210180418081809E
:10180000C1800181418181817047002907D0442234
:10181000125A0123DB031A4344231A5205E04422DF
:10182000125A53045B0C44221352704770B50024C3
:1018300000220023058C674E6F3635400584028CEC
:101840008388048B634D2C40B51E2C400D882C439F
:10185000751E2A408D892A434D882A43554DA8423A
:1018600008D0594DA84205D0584DA84202D0584D35
:10187000A84212D1574D68352A40CD892A43554D8B
:101880006C352A408D882A43524D903D2B40534D54
:101890002B400D8A2B434D8A2B43838004838D6814
:1018A0004563028470BD70B5002400220023058CBE
:1018B000484E603635400584028C8388048B484D41
:1018C0002C40454D2C400D782D062D0C2C43414DC0
:1018D00050352A408D892D052D0C2A434D882D0524
:1018E0002D0C2A43334DA84202D0374DA8421CD1BB
:1018F0003C4D2B400D8AAD042D0C2B432D4DA842A1
:1019000013D1344D103D2A40CD892D052D0C2A438D
:10191000304D30352A408D882D052D0C2A43324D0F
:101920002B404D8AAD042D0C2B43838004838D689E
:101930008563028470BD70B5002400220023058CED
:10194000244E903E35400584028C8388848B214D43
:101950002C40204D6D352C400D882C431F4D2A40C6
:101960000D7B2D062D0C2A438D782D062D0C2A4338
:10197000104DA84217D11C4D2A408D7B2D062D0CF1
:101980002A43184D2A400D792D062D0C2A43174D58
:101990002B40174D2B400D8A2D052D0C2B434D8AC6
:1019A0002D052D0C2B43838084838D68C5630284B1
:1019B00070BD0000002C01400004004000100040F9
:1019C000001400400020004000400140004401405D
:1019D000004801408FFF0000FFFC0000FFFD0000F9
:1019E000FF8F0000FFFB0000FFF70000FFEF00008B
:1019F000FFDF000070B5002200230024058CF94EA3
:101A000035400584038C8488828BF74D2A40F74D3E
:101A10002A400D782D062D0C2A43F54D2B400D7BC9
:101A20002D072D0C2B438D782D072D0C2B43F14DBD
:101A3000A84205D1F04D2C400D8AAD052D0C2C434C
:101A4000848082838D680564038470BD00210180D9
:101A50004180818081608181C181018241827047A2
:101A600070B50346002000241846183001258D402B
:101A7000ACB21D8CA5431D84002901D0082909D1D1
:101A80004D10281805687026B54305600568154394
:101A900005600DE00D1F2D046D0C28180568072644
:101AA0003603B543056005681606360C35430560F8
:101AB00070BD4163704781637047C16370470164C3
:101AC00070470A460021018BCC4B19400B4613434B
:101AD0001946018370470A460021018BC24B194009
:101AE00013061B0C1943018370470A460021818BA2
:101AF000C24B19400B4613431946818370470A466F
:101B00000021818BB84B194013061B0C19438183AC
:101B10007047002904D0828801231A43828004E0A0
:101B20008288B64B6F331A40828070470A46002184
:101B3000018BB24B683319400B461343194601839E
:101B400070470A460021018BAD4B194013061B0C50
:101B50001943018370470A460021818BA74B6833E4
:101B600019400B4613431946818370470A460021EA
:101B7000818BA34B194013061B0C194381837047BB
:101B80000A460021018B9D4B6C3319400B461343D1
:101B90001946018370470A460021018B994B194071
:101BA00013061B0C1943018370470A460021818BE1
:101BB000924B6C3319400B4613431946818370478F
:101BC0000A460021818B8F4B194013061B0C1943C9
:101BD000818370470A460021018B884B103B1940D6
:101BE0000B4613431946018370470A460021018BB7
:101BF0004904490C13061B0C1943018370470A461C
:101C00000021818B7D4B103B19400B461343194635
:101C1000818370470A460021818B4904490C1306D1
:101C20001B0C1943818370470A460021018C734BBA
:101C30006E3319400B4613431946018470470A4618
:101C40000021018C6D4B683319400B461343194634
:101C5000018470470A460021018C684B50331940BB
:101C600013051B0C1943018470470A460021018C9F
:101C7000624B103B194013051B0C1943018470473C
:101C80000A460021018C604B194013061B0C1943B6
:101C9000018470470A460021018C594B19401306F4
:101CA0001B0C1943018470470A460021018C504BDC
:101CB000194013071B0C19430184704702894F4BCD
:101CC00068331A40028102890A430281704730B5A5
:101CD000002301248C40A3B2048C9C430484048C14
:101CE00015468D40ADB22C43048430BD30B5002381
:101CF00004248C40A3B2048C9C430484048C1546B9
:101D00008D40ADB22C43048430BD002904D08288BC
:101D100004231A43828004E08288384B6C331A40D3
:101D200082807047828B394B1A408283828B0B06EC
:101D30001B0C1A4382837047F8B50C46002100251E
:101D400000260096068C274F3E400684818B058C2A
:101D50002607360C00962E4E31401606360C3143BF
:101D60001E07360C31432B4E354001273F03009EA2
:101D70003E43354381830584F8BD828B1F4B64331A
:101D80001A408283828B0A4382837047F8B50C46DF
:101D90000021002500260096068C184F903F3E40FB
:101DA0000684818B058C2606360C0096134E833EE6
:101DB00031401E05360C16433143174E3540FF2780
:101DC0000137009E3E43354381830584F8BD028B75
:101DD0000E4B1A400283028B0B061B0C1A43028324
:101DE00070470000FFEF0000FF8F0000FFFC0000C5
:101DF000FFDF0000002C0140FFBF00008FFF00004C
:101E0000FFF70000FFFB0000FFFD0000FFF30000F4
:101E1000FF0C0000FF5F0000FFF50000F8B50C4666
:101E20000021002500260096068CE64F3E400684E1
:101E3000018B058C2605360C0096E34E31401E07BB
:101E4000360C31431606360C3143DE4E903E35409B
:101E50001027009E3E43354301830584F8BD028B65
:101E6000D84B1B1D1A400283028B0A430283704722
:101E7000F0B50C4600210025068CD24F0F373E40AE
:101E80000684018B058CCF4EE33E31401E05360C97
:101E900016433143CB4EB61D35400126264335430C
:101EA00001830584F0BD70B505460C4620880028E6
:101EB0000AD12389A28861882846FFF7D9FFE188E3
:101EC0002846FFF7CCFF25E0208804280AD1238983
:101ED000A28861882846FFF7A1FFE1882846FFF71E
:101EE00076FF17E0208808280AD12389A288618814
:101EF0002846FFF74BFFE1882846FFF73EFF09E041
:101F00002389A28861882846FFF716FFE1882846C2
:101F1000FFF708FF70BD0021018041800121818011
:101F20000021C18001817047F8B505460C460026A6
:101F300001276088002801D1022600E00026A08841
:101F4000012801D1022700E001272088002814D1B0
:101F50002389A28861882846FFF78AFFE1882846FE
:101F6000FFF77DFF23893A4631462846FFF756FFA3
:101F7000E1882846FFF72BFF13E02389A2886188B8
:101F80002846FFF74BFFE1882846FFF720FF23890B
:101F90003A4631462846FFF76BFFE1882846FFF7AF
:101FA0005EFFF8BD0146486B70470146886B70477D
:101FB0000146C86B70470146086C7047002A03D081
:101FC00083890B43838102E083898B43838170473C
:101FD0008182704702460020138A0B4201D0012003
:101FE00000E000207047CA430282704730B50246C5
:101FF000002000230024158A0D402B4695890D40B2
:102000002C46002B03D0002C01D0012000E0002042
:1020100030BDCA430282704710B50B4613434824B3
:10202000235210BD002A03D083890B43838102E031
:1020300083898B4383817047002904D082880823D9
:102040001A43828004E082885E4B08331A40828003
:10205000704701895B4A09321140018170470A4685
:1020600000210189574B603B19400B461343194629
:102070000181704730B504460D4629462046FFF7DA
:10208000EEFF208907210843208130BDF8B50446C2
:102090000D4616461F46602D06D13B4601223146AD
:1020A0002046FFF7BBFE05E03B46012231462046B5
:1020B000FFF7DEFE29462046FFF7D1FF20890721E2
:1020C00008432081F8BD30B50C4600210189C9B212
:1020D0001D062D0C154325432943018130BDFFB555
:1020E00005460E46174600243A4631462846039BCD
:1020F000FFF7E9FF2C8933480930044007200443E7
:10210000304860380440702004432C81FFBDF0B596
:1021100004460D4616461F463B4632462946204693
:10212000FFF7D1FF20890121890308432081F0BDF9
:102130008288244B603B1A40828082880A438280D6
:10214000704702891F4B09331A40028102890A43F2
:102150000281704702891B4B703B1A400281028941
:102160000A4302817047F0B50C4600210025002685
:102170000189058B068C134F093739400F462743D9
:102180003946124F3D40FF2702373D430D4F9A3FDE
:102190003E401F053F0C17433E43018105830684E3
:1021A000F0BD002904D0828880231A43828004E095
:1021B0008288044B703B1A40828070475022115233
:1021C00070470000EFFF0000FF0C0000FCFC000067
:1021D00010B50446F748844209D101218803FFF76E
:1021E0001DF9002101208003FFF718F956E0F2489D
:1021F000844209D101214804FFF71EF90021012082
:102200004004FFF719F949E0EC48844209D1012163
:102210008804FFF711F9002101208004FFF70CF971
:102220003CE0E748844209D10121C804FFF704F9E2
:1022300000210120C004FFF7FFF82FE0E1488442AD
:1022400009D101210805FFF7F7F800210120000559
:10225000FFF7F2F822E0DC48844208D10121202077
:10226000FFF7DCF800212020FFF7D8F816E0D74868
:10227000844208D101214020FFF7D0F800214020FE
:10228000FFF7CCF80AE0D248844207D10121802030
:10229000FFF7C4F800218020FFF7C0F810BDF0B5AB
:1022A0008BB004460D46002700200A9000262068C7
:1022B00040084000206066680321090330468843D7
:1022C0000646A868064366602668C2480640E96874
:1022D000686808432969084306432660A668032105
:1022E000090230468843064668690643A660684688
:1022F000FEF716FFAF48844202D106980A900DE01F
:10230000AD48844202D107980A9007E0AB48844266
:1023100002D108980A9001E002980A9020680121F1
:10232000C90308420CD029680A9A500001F027FE20
:10233000074629680A9A500001F021FE0E4609E07E
:1023400029680A9801F01BFE074629680A9801F0DF
:1023500016FE0E4628684008B04200D87F1C206850
:102360000121C903084206D03807460F38469A496A
:10237000084030430746A7810BB0F0BD4B21C9018F
:102380000160002141608160C1600C210161002178
:102390004161704710B5002242680F2424021346A1
:1023A000A3431A464C680B6823438C682343CC68CC
:1023B00023431A43426010BD0021016041608160E7
:1023C000C1607047002904D0026801231A430260EB
:1023D00003E002685208520002607047002A03D0EE
:1023E00003680B43036002E003688B43036070479C
:1023F000002905D002680123DB031A43026004E0D0
:1024000002680123DB039A4302607047002905D06C
:1024100082680123DB021A43826004E082680123A0
:10242000DB029A4382607047002905D0426801238D
:10243000DB041A43426004E042680123DB049A4350
:1024400042607047002905D0426801239B041A436B
:10245000426004E0426801239B049A434260704753
:10246000002A03D043680B43436002E043688B4378
:1024700043607047002905D042680123DB031A43FB
:10248000426004E042680123DB039A4342607047E4
:10249000002905D042680123DB051A43426004E0AD
:1024A00042680123DB059A43426070474269120E7D
:1024B0001206426142690A4342617047028AFF2361
:1024C0001B021A400282028A0A43028270470029D4
:1024D00004D0026802231A43026003E00268022368
:1024E0009A4302607047826803231B059A43826007
:1024F00082680A4382607047002905D04268012340
:102500001B051A43426004E0426801231B059A43FD
:1025100042607047426803235B059A434260426809
:102520000A4342607047CA05D20D028570470146D2
:10253000888CC005C00D704742681202120A4260C2
:1025400042680B061A4342607047002905D00268B2
:1025500001235B031A43026004E0026801235B036A
:102560009A430260704702680123DB029A430260CB
:1025700002680A4302607047426810239A4342602F
:1025800042680A4342607047426820239A4342608F
:1025900042680A4342607047002905D0426801231F
:1025A0009B031A43426004E0426801239B039A4361
:1025B000426070470038014000440040004800403D
:1025C000004C004000500040001401400018014041
:1025D000001C0140F3E9FFFFF0FF0000002904D0D8
:1025E000826808231A43826003E0826808239A43C2
:1025F00082607047028AD2B20282028A0B021A43B8
:1026000002827047002904D0826820231A43826026
:1026100003E0826820239A4382607047002904D037
:10262000826810231A43826003E0826810239A4371
:1026300082607047826807235B049A4382608268E5
:102640004B041A438260704742691202120A4261C7
:1026500042690B061A4342617047826804239A4319
:10266000826082680A4382607047002904D08268D1
:1026700002231A43826003E0826802239A43826045
:102680007047002905D0826801239B031A438260AA
:1026900004E0826801239B039A438260704782684A
:1026A0000123DB039A43826082680A438260704799
:1026B00002681F235B059A43026002684B051A43B8
:1026C0000260704702681F231B049A43026002687D
:1026D0000B041A4302607047002A03D083680B433F
:1026E000836002E083688B438360704782680123C4
:1026F0005B039A43826082680A4382607047F8B540
:1027000003460024002600960025002018460E04EB
:10271000340ECEB200960127009EB7403D46022CF3
:1027200001D1001D02E0032C00D10830002A03D0A3
:1027300006682E43066002E00668AE430660F8BDF8
:10274000002A03D0038B0B43038302E0038B8B43EC
:1027500003837047826801231B039A438260826867
:102760000A438260704702460020D3690B4201D0C1
:10277000012000E0002070470162704770B50246FA
:102780000B4600240021002500201E04350ED9B27E
:1027900001268E403146012D02D11668314006E0F7
:1027A000022D02D15668314001E0966831401C0C80
:1027B0000126A6403446D6693440002903D0002CB7
:1027C00001D0012000E0002070BD10B500230022E0
:1027D0000B0C01249C402246026210BDFD4AFE4BB8
:1027E0001A601A4650609160FC4A1A60FC4A1A60EE
:1027F0007047FA48F8490860704700BFF949C9684E
:10280000C907C90FFAD1F749C9682022114202D07D
:102810002021F44AD160F349096902221143F14AA7
:10282000116111464861096940221143ED4A116165
:1028300000BFEC49C96820221142FAD02021E94AA0
:10284000D1601146096902229143E64A116170473D
:1028500030B5034600BFE34CE468E407E40FFAD167
:10286000E04CE46820252C4202D02024DD4DEC60B1
:10287000DC4C246901252C43DA4D2C6100200FE04B
:10288000441C1C5D24021D5C64190C5200BFD54C15
:10289000E46820252C42FAD02024D24DEC60801C24
:1028A0009042EDD3CF4C246964086400CD4D2C6177
:1028B00030BD01460868704710B57F20CA490885B9
:1028C0000220488500208885C885FDF71BFEC74883
:1028D000FFF793FF0822C549C3482830FFF7B8FF28
:1028E000FDF71BFE10BD00B5C048FFF7E2FFBE4973
:1028F0008862BE48001DFFF7DCFFBB49C86200BD0F
:1029000010B5FDF7FFFDB948FFF777FF0822B7497B
:10291000B5482830FFF79CFFFDF7FFFD10BDB34819
:10292000FFF7C7FF401C01D1FFF7C6FFAF48FFF715
:10293000C0FFAD490885AD48FFF7BBFF000CAA49B1
:10294000488500F068FF00F0E4FE01218902A848F4
:1029500000F07DFB0121C902A54800F078FB00F0E2
:1029600068FFA148408D030001F0E9FB0A060A0E4A
:1029700012161A1E22262A2E96219E48018127E031
:102980004B219C48018123E028219A4801811FE0C6
:102990001421984801811BE00A219648018117E023
:1029A00008219448018113E00821924801810FE039
:1029B0000321904801810BE002218E48018107E04C
:1029C00001218C48018103E032218A48018100BF46
:1029D00000BF8548408DC1B2864881718248008D14
:1029E000C1B28448C17100F048FF00F09CFF8249E9
:1029F0000420FFF7F3FEEDE1FFF7FBFE01210920C4
:102A0000C006FEF758F900280AD17748008801214E
:102A1000084375490880FF20F53001F035F805E0DE
:102A200071480088400840006F49088020217348A1
:102A3000FEF741F9002801D1012400E00024012122
:102A40006B48FEF738F9002801D1012000E0002092
:102A50004000044302216648FEF72DF9002801D109
:102A6000012000E000208000044304216048FEF7BC
:102A700022F9002801D1012000E00020C000044319
:102A800020210920C006FEF716F9002801D10120F7
:102A900000E000200001044340210920C006FEF7A9
:102AA0000AF9002801D1012000E000204001044380
:102AB00080210920C006FEF7FEF8002801D1012080
:102AC00000E000208001044310214C48FEF7F3F899
:102AD000002801D1012000E00020C0010443424849
:102AE0004481012149034248FEF7E5F8002801D15D
:102AF000012400E00024012189033D48FEF7DBF8B2
:102B0000002801D1012000E0002040000443012101
:102B1000C9033748FEF7CFF8002801D1012000E0B3
:102B200000208000044340213448FEF7C4F8002808
:102B300001D1012000E00020C000044380212F4883
:102B4000FEF7B9F8002801D1012000E000200001C3
:102B50000443FF2101312948FEF7ADF8002801D1D7
:102B6000012000E0002040010443012149022348E4
:102B7000FEF7A1F8002801D1012000E0002080012B
:102B80000443FF2101310920C006FEF794F8002814
:102B900001D1012000E00020C001044312488481DB
:102BA000808DC207D20F40211548FEF7A8F80E48C5
:102BB000808D8007C20F80211148FEF7A0F80A48D7
:102BC000808D4007C20F0121C9030920C006FEF70E
:102BD00096F817E05555000000300040AAAA000002
:102BE000CCCC0000002002407201002000FC000854
:102BF000000400486801002052030000000800485B
:102C0000001400487448808D0007C20F012189021A
:102C10007248FEF774F87048808DC006C20F01211B
:102C2000C9026E48FEF76BF86B48808D8006C20FB4
:102C3000012109036948FEF762F86748808D400664
:102C4000C20F04216648FEF75AF86348808D0006DB
:102C5000C20F08216348FEF752F85F48808DC00517
:102C6000C20F10215F48FEF74AF85B48808D80054F
:102C7000C20F20215B48FEF742F85748808D40057F
:102C8000C20F40215748FEF73AF85348808D00059F
:102C9000C20F80215348FEF732F84F48808DC004A0
:102CA000C20FFF2101314F48FEF729F84A48808DB5
:102CB0008004C20F012149024A48FEF720F8464825
:102CC000C08DC207D20F01214448FEF718F84248D0
:102CD000C08D8007C20F02214048FEF710F83E4821
:102CE000C08D4007C20F04213C48FEF708F83A485F
:102CF000C08D0007C20F08213848FEF700F836489B
:102D0000418D39488079814252D03348408DC1B2DB
:102D100035488171354800684008400033490860F3
:102D20002D48408D002802D196212F4801812A4844
:102D3000408D012802D14B212B4801812648408D2E
:102D4000022802D13021284801812348408D0328E0
:102D500002D12621244801811F48408D042802D138
:102D60001921214801811C48408D052802D11321D9
:102D70001D4801811848408D062802D10A211A48B1
:102D800001811548408D072802D10621164801818E
:102D90001148408D082802D10321134801810E48B3
:102DA000408D092802D101210F48018100F065FD05
:102DB0000F48FFF77EFD80B20749098D884207D191
:102DC0000B48FFF776FD000C0349498D884201D07E
:102DD000FFF796FD10E60000720100200008004891
:102DE000000C004800040048680100200038014041
:102DF00000FC00087CB505460C460094012168469D
:102E0000417100210171C17169462846FDF7F0FE4C
:102E10007CBD7CB505460C46009401216846417195
:102E20000171817169462846FDF7E2FE7CBD70B5EF
:102E300004460D46002629462046FFF7EAFF258571
:102E4000012000F036FEA561012000F032FE294687
:102E50002046FFF7CFFF208A284201D0012000E062
:102E6000002006462D2000F024FE304670BDF8B547
:102E700006460F46002500240BE039463046FFF792
:102E8000D6FF002803D00120A0402843C5B2601C13
:102E9000C4B2082CF1DB2846F8BD70B504460D46D7
:102EA000164629462046FFF7B4FF2585032000F08B
:102EB00000FE002E00D0A561502000F0FAFDA561B3
:102EC00070BDF8B506460F461546002409E02846B1
:102ED0002041C207D20F39463046FFF7DEFF601CA3
:102EE000C4B2082CF3DBF8BD70B504460D460026CD
:102EF000208A284201D1012070BD29462046FFF7D3
:102F000088FF2585FF20E13000F0D3FDA56129462B
:102F10002046FFF76FFF3C2000F0CBFD208A2842BF
:102F200001D0042000E000200646FF20A53000F07C
:102F3000C0FD3046E0E7F3B585B00026002500244B
:102F400000270020019006990598FFF7CDFF054660
:102F5000002D76D1CC2206990598FFF7B2FFBE224C
:102F600006990598FFF7ADFF00BF0EE0069905989A
:102F7000FFF77DFF02A90855082C04DA02A8005DBE
:102F800070406F490E5C601CC4B2092CEEDB6846D1
:102F9000007CB04213D06B480078401C694908702F
:102FA000084600780A2805DA06990598FFF7C3FF56
:102FB00007B0F0BD0020634908700220F8E7002048
:102FC000604908706846017A0171417A41710421B3
:102FD000415E09110191407A802108421DD0684666
:102FE000007A082108420CD1684680880F21090325
:102FF0000843C0430A214843401DC043401C07B258
:103000001DE0684680880F2109030843C0430A2158
:103010004843C043401C07B211E06846007A0821CB
:10302000084207D0684680880A214843401D07B2FD
:1030300005E006E0684680880A21484307B2384622
:10304000B6E7042D01D1681FB2E72846B0E770B596
:1030500004460D4600260920C006844204D1012101
:103060004804FEF7A3F926E03748844204D1012141
:103070000002FEF79BF91EE03448844204D101218E
:103080000002FEF793F916E03148844204D1012191
:103090000805FEF78BF90EE02E48844204D1012189
:1030A0004002FEF783F906E02B48844203D1012158
:1030B0008805FEF77BF929462046FFF7AAFE294638
:1030C0002046FFF711FF0646CC2229462046FFF78F
:1030D000F8FE4E2229462046FFF7F3FE7D222946C0
:1030E0002046FFF7EEFEB22229462046FFF7E9FE12
:1030F0001F2229462046FFF7E4FE304670BD70B51A
:1031000004460D4629462046FFF7EEFECC2229460E
:103110002046FFF7D6FE442229462046FFF7D1FE7F
:1031200070BD7CB505460C4600940121684641718E
:1031300001710021817169462846FDF759FD7CBD6A
:103140005A410008600000200004004800080048C0
:10315000000C00480010004800140048704700BFF1
:10316000FEE770477047704710B5F948008A40087D
:103170004000F74908820915F648FFF7DCFE84B2E3
:10318000F548844209D1F5480078032805DAF34868
:103190000078401CF149087051E00020EF490870A8
:1031A000EF48844215D1EF48008802210843ED49D9
:1031B00008800846008804218843EA4908800846B8
:1031C000008808218843E74908800020C0434880E0
:1031D00035E0012C14D1E348008802218843E149FD
:1031E00008800846008804210843DE490880084614
:1031F000008808218843DB490880A01E48801EE023
:10320000022C14D1D748008802218843D549088070
:103210000846008804218843D2490880084600886F
:1032200008210843CF490880E01E488007E0CD48C8
:10323000008802218843CB49088008464480012148
:10324000C902C448FFF777FE84B2C348844209D15B
:10325000C2484078032805DAC0484078401CBF497E
:10326000487051E00020BD494870BD48844215D1E6
:10327000BC48008810210843BA49088008460088E5
:1032800020218843B74908800846008840218843A8
:10329000B44908800020C043888035E0012C14D157
:1032A000B048008810218843AE490880084600884D
:1032B00020210843AB490880084600884021884304
:1032C000A8490880A01E88801EE0022C14D1A548C1
:1032D000008810218843A3490880084600882021DF
:1032E0008843A049088008460088402108439D493A
:1032F0000880E01E888007E09A48008810218843F3
:10330000984908800846848010219748FFF713FEEB
:1033100084B29148844209D190488078032805DA24
:103320008E488078401C8D49887053E000208B497E
:1033300088708B48844217D18A48008880210843CE
:103340008849088008460088FF2101318843854963
:103350000880084600880121490288438149088085
:103360000020C043C88035E0012C14D17D4800887E
:10337000802188437B490880084600882102084351
:1033800078490880084600886102884375490880AA
:10339000A01EC8801EE0022C14D172480088802133
:1033A00088437049088008460088E10188436D49D8
:1033B000088008460088210208436A490880E01E08
:1033C000C88007E0674800888021884365490880F5
:1033D0000846C48020216448FFF7ADFD84B25E48F2
:1033E000844209D15D48C078032805DA5B48C0787B
:1033F000401C5A49C87055E000205849C8705848C8
:10340000844218D157480088012189020843554950
:103410000880084600880121C90288435149088074
:10342000084600880121090388434E49088000208E
:10343000C043088136E0012C14D14A480088A1021B
:1034400088434849088008460088E1020843454906
:103450000880084600882103884342490880A01E4E
:1034600008811FE0022C14D13E4800886102884385
:103470003C49088008460088A102884339490880F1
:1034800008460088E102084336490880E01E0881AA
:1034900008E03448008801218902884331490880C6
:1034A00008460481012189022A48FFF728FE0121EC
:1034B000C9022848FFF723FE10212B48FFF71FFE03
:1034C00020212948FFF71BFE10BD10B527492848C9
:1034D000FFF754F9002819D024492548FFF775F95A
:1034E0000021244801808078FE2801DD2148817078
:1034F0001F48FFF71CF8C1B21E4882788078401C34
:10350000C3B21C488370FF38013881541A491848E7
:10351000FFF734F9002843D017491548FFF755F94C
:1035200016491348FFF751F91248C17800798142D2
:1035300026DA1048C278C078401CC3B20D48C37068
:10354000FF380138815C0A48FEF7EDFF28E00000F3
:1035500000480140000400485203000061000020C0
:10356000FFFF000072010020001400480501050063
:103570000038014068010020060106000003010038
:103580004148FEF7D4FF0021404801710122404923
:103590003D48FFF7B4F800223E493B48FFF7AFF83B
:1035A0003948C069082108420ED13748C069022154
:1035B000084209D13448C069C007C00F04D1364859
:1035C000C0690904084218D02F48006A082108433E
:1035D0002D4908620846006A022108432A49086208
:1035E0000846006A01210843274908622A48006A00
:1035F0000121490408432849086210BD10B5012182
:103600002648FEF706FD214801880088401C82B24A
:103610001E4802800089814201DD012000E0002077
:103620001A498978012901DD012100E000210842C1
:1036300028D01B4800F009FC14480079002801DD5F
:10364000012000E000201149C978002901D10121A1
:1036500000E00021084215D000220D490A48FFF77A
:103660004EF801220B490848FFF749F80748C2788D
:10367000C078401CC3B20548C3700948815C024849
:10368000FEF751FF10BD0000003801406801002026
:10369000050105000601060000440040002000402E
:1036A0006800002010B5002819DAE54A03071B0F4F
:1036B000083B9B089B00D2588307DC0EFF23A340E6
:1036C0009A438B071B0E8407E40EA3401A43DC4B7E
:1036D0000407240F083CA408A4001A5118E0D94A92
:1036E00003231B02D21883089B00D2588307DC0EE9
:1036F000FF23A3409A438B071B0E8407E40EA340CD
:103700001A43D04B032424021B198408A4001A5125
:1037100010BD1CB501214804FDF748FE01218804B5
:10372000FDF744FE0121C804FDF740FE0121080514
:10373000FDF73CFE01218805FDF738FEFF20E13052
:1037400000900121684641710021017181710121C0
:10375000C17169460920C006FDF74AFABA480090CF
:103760000121684641710021017181710121C171FE
:103770006946B648FDF73CFA3F2000010090012160
:10378000684641710021017181710121C171694651
:10379000AF48FDF72DFA0120C003009001216846D3
:1037A000417101710021817169460920C006FDF750
:1037B0001FFA7F20C000009001216846417101710D
:1037C000002181716946A148FDF712FAA1480090D5
:1037D00001216846417101710021817169469C484F
:1037E000FDF706FA0420009001216846417101713D
:1037F0000021817169469848FDF7FAF9C0200090D0
:103800000121684641710171002181716946934827
:10381000FDF7EEF91CBD9248C0691021084390499C
:10382000C8612F208F49088108208E4920390880DF
:10383000704710B501218804FDF7C6FD8A488B4901
:103840000881FF20F53089492039C86208468089FF
:103850000121084385492039888103211620FFF77B
:1038600021FF162000F0E5F880482038008801216B
:1038700008437E492039088010BD00B589B0012178
:103880004804FDF793FD01218803FDF79DFD01200C
:1038900080020790012108A84170022101700021D7
:1038A000C17007A90920C006FDF7A2F901220A216B
:1038B0000920C006FDF72FFA0120400207900121E0
:1038C00008A84170022101700021C17007A90920D8
:1038D000C006FDF78DF901220921C806FDF71BFA84
:1038E0006348807980006349085801900020029065
:1038F0000390049006900C20059001A95E48FEF705
:10390000CEFC01215C48FEF75DFD01225B495A486F
:10391000FEF7F5FE00211B20FFF7C4FE1B2000F080
:1039200088F809B000BD0EB501210802FDF75AFD67
:103930005348FDF74DFE302168460180002101818A
:1039400041806420019069464D48FDF7B3FE012196
:103950004B48FEF748FB012211464948FEF72EFB73
:1039600001214748FDF72BFF02211320FFF79AFEA4
:10397000132000F05EF80EBD0EB501214804FDF7DE
:1039800023FD4048FDF724FE3749491C6846018065
:10399000002101814180FF202D3001906946394886
:1039A000FDF788FE01213748FEF71DFB0122114675
:1039B0003448FEF703FB03211520FFF773FE1520A3
:1039C00000F037F80EBD1FB501214804FDF7EEFCED
:1039D00001200290012168464173022101730021F8
:1039E00081730221C17302A90920C006FDF700F905
:1039F000002211460920C006FDF78DF90121084675
:103A0000FDF7E2FC00210846FDF79DFD0120009036
:103A10000021684601710C21417101218171FCF77F
:103A2000DBFC03210520FFF73DFE052000F001F837
:103A30001FBDC206D20E01219140024A116070479B
:103A40001CED00E000E100E007E000000004004899
:103A5000000800480F1C0000000C0048001400483B
:103A600000100240201000407FBB000020480140B1
:103A700068010020340000200038014005010500E5
:103A8000002000400044014010B58CB0044601A85D
:103A9000FDF746FB1249029800F071FA60430B9063
:103AA00002E00B98401E0B900B980028F9D10CB047
:103AB00010BD002800D101200A49C8620021094A2E
:103AC00051620921118000BF0649098AC907C90F3F
:103AD000FAD00449098A49084900024A118270470C
:103AE000102700000010004030B502460020002AD8
:103AF0001AD0FC4816E01478521CC5B26C40050A76
:103B00002D02601900230AE0C407E40F04D0440822
:103B1000F54D6C40204600E040085C1CE3B2082BE9
:103B2000F2DB491E0029E6DC30BD427880231A43CF
:103B3000427081700523FF2205321354704710B57F
:103B400004462079002849D1E078012841D120217C
:103B5000FF20053001550120207100206071A07107
:103B60000320E0710020207204206072DF4800789A
:103B7000A072DE484078E072DC4880782073DB4831
:103B8000C07860730120A0730720E073D8480078E4
:103B90002074D74840786074D5488078A074D448A1
:103BA000C078E074D248007920750220E0750520C5
:103BB0002076D04800786076CE484078A076CD4810
:103BC0008078E076CB48C0782077CA480079607763
:103BD00008E003212046FFF7A8FF03E0022120466A
:103BE000FFF7A3FF10BD30B50446A0780002E178CE
:103BF0004518142D04D202212046FFF796FF30BD50
:103C0000142D06D0152D23D0162D40D0172D7AD186
:103C100059E02079002802D160797F2804D003215F
:103C20002046FFF782FF12E01E2D0CD2FF2003304A
:103C3000015D801C015520790002617940186900FE
:103C4000AD4A505203E002212046FFF76EFF6EE0BE
:103C50002079002802D16079092804DD032120465B
:103C6000FFF763FF12E01E2D0CD2FF200330015D31
:103C7000801C0155207900026179401869009E4A34
:103C8000505203E002212046FFF74FFF4FE020791A
:103C90003F2804DD03212046FFF747FF12E01E2DD9
:103CA0000CD2FF200330015D801C015520790002F9
:103CB000617940186900904A505203E00221204681
:103CC000FFF733FF33E02079002802D160790F2815
:103CD00004DD03212046FFF728FF13E01E2D0DD23F
:103CE000FF200330015D801C0155207900026179BD
:103CF00040186900804A505204E004E00221204646
:103D0000FFF713FF13E01E2D0CD2FF200330015DDF
:103D1000801C015520790002617940186900764ABB
:103D2000505203E002212046FFF7FFFE00BF00BF14
:103D300000BF64E770B50446A0780002E17845183A
:103D40002079000261794618002E03D0FF2000027E
:103D500086422AD1102D23D2FF200330015D801C22
:103D60000155002E0DD1E90863483C30415C6A07DB
:103D7000520F012090408143EA085F483C30815453
:103D800017E0E9085C483C30405C6A07520F0121AB
:103D900091400843C1B2EA0857483C30815408E0DA
:103DA00002212046FFF7C1FE03E003212046FFF772
:103DB000BCFE70BDFEB5044600260027A0780002B8
:103DC000E178401802902079000261794018019052
:103DD00003270199029840181E2801D2012000E013
:103DE000002001997E2901D2012100E00021084232
:103DF00026D0002617E00298301840003E490D5AA0
:103E0000002D09DA0095009D281280210843E05515
:103E1000781C009D255404E02804000EE055781C11
:103E20002554BF1C761C01988642E4D37006000E10
:103E3000A0707000401DC1B2FF200530015503E0A5
:103E400002212046FFF771FEFEBD30B50446207802
:103E5000002801D0012000E00020FF210331095D8E
:103E6000052901DD012100E0002108402278FF2121
:103E70000831095D8A4201D1012100E00021227848
:103E8000FF2A01D1012200E00022114308426CD038
:103E9000FF200330005D811E2046FFF725FE05460A
:103EA000FF200330005D801E205CE9B2884201D112
:103EB000012000E00020FF210331095D491E615C03
:103EC0002A0A914201D1012100E0002108424CD090
:103ED000607805281FD011DC032814D0042826D1CF
:103EE00015E00000FFFF000001A0000024000020FA
:103EF000280000202D0000207201002006280ED08E
:103F00002B2814D10FE02046FFF754FF14E0204681
:103F1000FFF750FF10E02046FFF70CFF0CE02046B3
:103F2000FFF761FE08E02046FFF709FE04E00121EB
:103F30002046FFF7FAFD00BF00BFFF200530005DFF
:103F4000811E2046FFF7D0FD0546FF200530005DAD
:103F5000801E25542804010EFF200530005D401E00
:103F600021540021FF20043001550021FF2006309C
:103F70000155C01E0155491E801E015330BD00224F
:103F800003098B422CD3030A8B4211D300239C4696
:103F90004EE003460B433CD4002243088B4231D30E
:103FA00003098B421CD3030A8B4201D394463FE0A2
:103FB000C3098B4201D3CB01C01A524183098B4202
:103FC00001D38B01C01A524143098B4201D34B01EB
:103FD000C01A524103098B4201D30B01C01A52414E
:103FE000C3088B4201D3CB00C01A524183088B42D5
:103FF00001D38B00C01A524143088B4201D34B00BE
:10400000C01A5241411A00D201465241104670472F
:104010005DE0CA0F00D04942031000D34042534034
:1040200000229C4603098B422DD3030A8B4212D3F4
:10403000FC22890112BA030A8B420CD38901921126
:104040008B4208D3890192118B4204D389013AD063
:10405000921100E08909C3098B4201D3CB01C01A38
:10406000524183098B4201D38B01C01A524143094B
:104070008B4201D34B01C01A524103098B4201D339
:104080000B01C01A5241C3088B4201D3CB00C01AA6
:10409000524183088B4201D38B00C01A5241D9D2BE
:1040A00043088B4201D34B00C01A5241411A00D23F
:1040B0000146634652415B10104601D34042002B3B
:1040C00000D54942704763465B1000D3404201B5BA
:1040D0000020C046C04602BD704770477047754615
:1040E00000F022F8AE46050069465346C008C000FD
:1040F000854618B020B5FCF74BF860BC002749088E
:10410000B6460026C0C5C0C5C0C5C0C5C0C5C0C56F
:10411000C0C5C0C5403D49008D4670470446C046F5
:10412000C0462046FCF713F800487047EC01002019
:1041300001491820ABBEFEE726000200704730B4EC
:104140007446641E2578641CAB4204D3635D5B0037
:10415000E31830BC18471D46F8E7005EBCE2613F3B
:10416000DD83C29C7E20A3FD1F419DC3217FFCA255
:10417000401E5F01E3BD3E6082DC237D9FC1421C87
:10418000FEA0E1BF5D0380DE3C62BEE0025CDF8139
:10419000633D7C22C09E1D43A1FF4618FAA42779E7
:1041A0009BC584DA3866E5BB5907DB856739BAE415
:1041B00006581947A5FB7826C49A653BD987045A47
:1041C000B8E6A7F91B45C6987A24F8A6441A99C7F9
:1041D000257B3A6486D85B05E7B98CD2306EEDB3A7
:1041E000510F4E10F2AC2F7193CD114FADF3702ED5
:1041F000CC92D38D6F31B2EC0E50AFF1134DCE9007
:10420000722C6D33D18F0C52B0EE326C8ED0530DB8
:10421000EFB1F0AE4C1291CF2D73CA947628ABF566
:1042200017490856B4EA6937D58B5709EBB5366894
:104230008AD495CB2977F4AA4816E9B7550B88D6C6
:10424000346A2B7597C94A14F6A8742AC896154B78
:10425000A9F7B6E80A54D7896B3500007C420008FC
:104260000000002068000000F8000008E442000898
:1042700068000020E807000014010008006CDC0260
:104280000000000000000000010203040607080906
:1042900000000000010203040102030406070809EC
:1042A0005445434F534D2D494F322E302E3100008F
:1042B00060090000C012000080250000004B0000D3
:1042C00000960000C0DA000000E1000000C201001A
:1042D00000F4010000E803000000000000000000FE
:0442E00000000000DA
:04000005080000B53A
:00000001FF
